{
  "_format": "hh-sol-artifact-1",
  "contractName": "SwapAI",
  "sourceName": "contracts/SwapAI.sol",
  "abi": [
    {
      "inputs": [
        {
          "internalType": "address",
          "name": "_tusdTokenAddr",
          "type": "address"
        },
        {
          "internalType": "address",
          "name": "_wbtcTokenAddr",
          "type": "address"
        }
      ],
      "stateMutability": "nonpayable",
      "type": "constructor"
    },
    {
      "anonymous": false,
      "inputs": [
        {
          "indexed": false,
          "internalType": "uint256",
          "name": "btcSentiment",
          "type": "uint256"
        },
        {
          "indexed": false,
          "internalType": "uint256",
          "name": "btcPriceCurrent",
          "type": "uint256"
        },
        {
          "indexed": false,
          "internalType": "uint256",
          "name": "btcPricePrediction",
          "type": "uint256"
        },
        {
          "indexed": false,
          "internalType": "bool",
          "name": "isNegativeFuture",
          "type": "bool"
        },
        {
          "indexed": false,
          "internalType": "bool",
          "name": "isPositiveFuture",
          "type": "bool"
        }
      ],
      "name": "AutoSwap",
      "type": "event"
    },
    {
      "anonymous": false,
      "inputs": [
        {
          "indexed": false,
          "internalType": "uint256",
          "name": "oldAmount",
          "type": "uint256"
        },
        {
          "indexed": false,
          "internalType": "uint256",
          "name": "newAmount",
          "type": "uint256"
        }
      ],
      "name": "DepositTUSD",
      "type": "event"
    },
    {
      "anonymous": false,
      "inputs": [
        {
          "indexed": false,
          "internalType": "uint256",
          "name": "oldAmount",
          "type": "uint256"
        },
        {
          "indexed": false,
          "internalType": "uint256",
          "name": "newAmount",
          "type": "uint256"
        }
      ],
      "name": "DepositWBTC",
      "type": "event"
    },
    {
      "anonymous": false,
      "inputs": [
        {
          "indexed": false,
          "internalType": "bool",
          "name": "success",
          "type": "bool"
        },
        {
          "indexed": false,
          "internalType": "bool",
          "name": "toTUSD",
          "type": "bool"
        },
        {
          "indexed": false,
          "internalType": "uint256",
          "name": "btcSentiment",
          "type": "uint256"
        },
        {
          "indexed": false,
          "internalType": "uint256",
          "name": "btcPriceCurrent",
          "type": "uint256"
        },
        {
          "indexed": false,
          "internalType": "uint256",
          "name": "btcPricePrediction",
          "type": "uint256"
        },
        {
          "indexed": false,
          "internalType": "bool",
          "name": "isNegativeFuture",
          "type": "bool"
        },
        {
          "indexed": false,
          "internalType": "bool",
          "name": "isPositiveFuture",
          "type": "bool"
        }
      ],
      "name": "ManualSwap",
      "type": "event"
    },
    {
      "anonymous": false,
      "inputs": [
        {
          "indexed": false,
          "internalType": "bool",
          "name": "optInStatus",
          "type": "bool"
        }
      ],
      "name": "OptInStatus",
      "type": "event"
    },
    {
      "anonymous": false,
      "inputs": [
        {
          "indexed": false,
          "internalType": "bool",
          "name": "success",
          "type": "bool"
        },
        {
          "indexed": false,
          "internalType": "bool",
          "name": "isNewUser",
          "type": "bool"
        }
      ],
      "name": "RegisterUser",
      "type": "event"
    },
    {
      "anonymous": false,
      "inputs": [
        {
          "indexed": false,
          "internalType": "uint256",
          "name": "tusdBalance",
          "type": "uint256"
        },
        {
          "indexed": false,
          "internalType": "uint256",
          "name": "wbtcBalance",
          "type": "uint256"
        }
      ],
      "name": "UserBalance",
      "type": "event"
    },
    {
      "anonymous": false,
      "inputs": [
        {
          "indexed": false,
          "internalType": "bool",
          "name": "userExists",
          "type": "bool"
        }
      ],
      "name": "UserExists",
      "type": "event"
    },
    {
      "inputs": [
        {
          "internalType": "uint256",
          "name": "btcSentiment",
          "type": "uint256"
        },
        {
          "internalType": "uint256",
          "name": "btcPriceCurrent",
          "type": "uint256"
        },
        {
          "internalType": "uint256",
          "name": "btcPricePrediction",
          "type": "uint256"
        }
      ],
      "name": "_processAnalysisAuto",
      "outputs": [],
      "stateMutability": "nonpayable",
      "type": "function"
    },
    {
      "inputs": [
        {
          "internalType": "address",
          "name": "userAddress",
          "type": "address"
        },
        {
          "internalType": "uint256",
          "name": "btcSentiment",
          "type": "uint256"
        },
        {
          "internalType": "uint256",
          "name": "btcPriceCurrent",
          "type": "uint256"
        },
        {
          "internalType": "uint256",
          "name": "btcPricePrediction",
          "type": "uint256"
        }
      ],
      "name": "_processAnalysisManualToTUSD",
      "outputs": [],
      "stateMutability": "nonpayable",
      "type": "function"
    },
    {
      "inputs": [
        {
          "internalType": "address",
          "name": "userAddress",
          "type": "address"
        },
        {
          "internalType": "uint256",
          "name": "btcSentiment",
          "type": "uint256"
        },
        {
          "internalType": "uint256",
          "name": "btcPriceCurrent",
          "type": "uint256"
        },
        {
          "internalType": "uint256",
          "name": "btcPricePrediction",
          "type": "uint256"
        }
      ],
      "name": "_processAnalysisManualToWBTC",
      "outputs": [],
      "stateMutability": "nonpayable",
      "type": "function"
    },
    {
      "inputs": [
        {
          "internalType": "uint256",
          "name": "depositAmount",
          "type": "uint256"
        }
      ],
      "name": "depositTUSD",
      "outputs": [],
      "stateMutability": "nonpayable",
      "type": "function"
    },
    {
      "inputs": [
        {
          "internalType": "uint256",
          "name": "depositAmount",
          "type": "uint256"
        }
      ],
      "name": "depositWBTC",
      "outputs": [],
      "stateMutability": "nonpayable",
      "type": "function"
    },
    {
      "inputs": [],
      "name": "fetchOptInStatus",
      "outputs": [],
      "stateMutability": "nonpayable",
      "type": "function"
    },
    {
      "inputs": [],
      "name": "fetchUserBalance",
      "outputs": [],
      "stateMutability": "nonpayable",
      "type": "function"
    },
    {
      "inputs": [
        {
          "internalType": "bool",
          "name": "toTUSD",
          "type": "bool"
        }
      ],
      "name": "manualSwapUserBalance",
      "outputs": [],
      "stateMutability": "nonpayable",
      "type": "function"
    },
    {
      "inputs": [],
      "name": "registerUser",
      "outputs": [],
      "stateMutability": "nonpayable",
      "type": "function"
    },
    {
      "inputs": [
        {
          "internalType": "bool",
          "name": "newOptInStatus",
          "type": "bool"
        }
      ],
      "name": "setOptInStatus",
      "outputs": [],
      "stateMutability": "nonpayable",
      "type": "function"
    },
    {
      "inputs": [],
      "name": "smartSwapAllBalances",
      "outputs": [],
      "stateMutability": "nonpayable",
      "type": "function"
    },
    {
      "inputs": [],
      "name": "userExists",
      "outputs": [],
      "stateMutability": "nonpayable",
      "type": "function"
    }
  ],
  "bytecode": "0x6080604052348015620000575762461bcd60e51b6000908152602060045260226024527f45746865722073656e7420746f206e6f6e2d70617961626c652066756e63746960449081526137b760f11b60645290608490fd5b5060405162003a5338038062003a538339810160408190526200007a916200017c565b600480546001600160a01b038085166001600160a01b0319928316179092556005805492841692909116919091179055604051620000b89062000160565b604051809103906000f080158015620000d5573d6000803e3d6000fd5b50600260006101000a8154816001600160a01b0302191690836001600160a01b0316021790555081816040516200010c906200016e565b62000119929190620001fb565b604051809103906000f08015801562000136573d6000803e3d6000fd5b50600380546001600160a01b0319166001600160a01b0392909216919091179055506200022e9050565b61124a8062001ba583390190565b610c648062002def83390190565b60008060408385031215620001d05762461bcd60e51b8252602060045260226024527f414249206465636f64696e673a207475706c65206461746120746f6f2073686f604452611c9d60f21b606452608482fd5b8251620001dd8162000215565b6020840151909250620001f08162000215565b809150509250929050565b6001600160a01b0392831681529116602082015260400190565b6001600160a01b03811681146200022b57600080fd5b50565b611967806200023e6000396000f3fe60806040523480156100715762461bcd60e51b6000908152602060045260226024527f45746865722073656e7420746f206e6f6e2d70617961626c652066756e63746960449081527f6f6e00000000000000000000000000000000000000000000000000000000000060645290608490fd5b50600436106101355760003560e01c8063737ec20f116100e2578063c629e176116100bc578063c629e17614610227578063def5f9331461022f578063eae6d4da1461024257610135565b8063737ec20f146101ee578063a62281ed14610201578063aaf71e421461021457610135565b80634d3820eb116101135780634d3820eb146101cb57806354c9f089146101d35780636db6db5b146101db57610135565b806329c240fe1461019b5780632b15ba59146101b05780634848907b146101c3575b62461bcd60e51b6000908152602060045260356024527f436f6e747261637420646f6573206e6f7420686176652066616c6c6261636b2060449081527f6e6f7220726563656976652066756e6374696f6e73000000000000000000000060645290608490fd5b6101ae6101a93660046115eb565b61024a565b005b6101ae6101be36600461139e565b6103f6565b6101ae6107f6565b6101ae61084b565b6101ae61092b565b6101ae6101e936600461139e565b610973565b6101ae6101fc366004611592565b610d5d565b6101ae61020f366004611592565b610ea6565b6101ae610222366004611424565b610fe2565b6101ae611042565b6101ae61023d366004611424565b61112a565b6101ae611164565b6109c4831060006306422c4083858161025f57fe5b046305f5e10002119050600082806102745750815b9050611d4c861160006305a995c086888161028b57fe5b046305f5e1000210905060008280156102a15750815b905060606102ad6111ab565b905060005b81518110156103aa5760035482516001600160a01b039091169063516f1444908490849081106102de57fe5b602002602001015185896040518463ffffffff1660e01b8152600401610306939291906118ca565b608060405180830381600087803b1580156103695762461bcd60e51b6000908152602060045260256024527f54617267657420636f6e747261637420646f6573206e6f7420636f6e7461696e60449081526420636f646560d81b60645290608490fd5b505af115801561037d573d6000803e3d6000fd5b505050506040513d601f19601f820116820180604052508101906103a191906114e5565b506001016102b2565b507f3cdaa4f71cc8b876438cefb47473f1162311d7f2a01008809005cf090941180b8a8a8a88866040516103e29594939291906118fc565b60405180910390a150505050505050505050565b6109c4831060006306422c4083858161040b57fe5b046305f5e10002119050600082806104205750815b9050611d4c861160006305a995c086888161043757fe5b046305f5e10002109050600082801561044d5750815b9050610457611361565b506001600160a01b03808b166000908152600160208181526040928390208351608081018552815460ff90811615158252938201549281018390526002820154818601526003909101549092161515606083015260048054935163095ea7b360e01b8152929491939091169163095ea7b3916104d79130918691016116e0565b602060405180830381600087803b15801561053a5762461bcd60e51b6000908152602060045260256024527f54617267657420636f6e747261637420646f6573206e6f7420636f6e7461696e60449081526420636f646560d81b60645290608490fd5b505af115801561054e573d6000803e3d6000fd5b505050506040513d601f19601f820116820180604052508101906105729190611488565b6105975760405162461bcd60e51b815260040161058e906117d4565b60405180910390fd5b600480546003546040516323b872dd60e01b81526001600160a01b03928316936323b872dd936105ce933093911691879101611681565b602060405180830381600087803b1580156106315762461bcd60e51b6000908152602060045260256024527f54617267657420636f6e747261637420646f6573206e6f7420636f6e7461696e60449081526420636f646560d81b60645290608490fd5b505af1158015610645573d6000803e3d6000fd5b505050506040513d601f19601f820116820180604052508101906106699190611488565b6106855760405162461bcd60e51b815260040161058e9061174c565b6003546040516301bf192360e21b81526001600160a01b03909116906306fc648c906106b89085906000906004016118ad565b608060405180830381600087803b15801561071b5762461bcd60e51b6000908152602060045260256024527f54617267657420636f6e747261637420646f6573206e6f7420636f6e7461696e60449081526420636f646560d81b60645290608490fd5b505af115801561072f573d6000803e3d6000fd5b505050506040513d601f19601f8201168201806040525081019061075391906114e5565b6001600160a01b038d1660009081526001602081815260408084208551815490151560ff1991821617825592860151818501558186015160028201556060860151600390910180549115159190931617909155519294507ff64079d6c9709e69cdeb0e27b2552e1a967bbd06cf90b5d23d74eba54636c02e926107e092908f908f908f908d908b90611716565b60405180910390a1505050505050505050505050565b336000908152600160208190526040918290209081015460029091015491517f3e243e6d57641744143b337e8a56c38f7b922c81bfa4b9133d142a335defb6739261084192916118ee565b60405180910390a1565b336000908152600160205260408120805490919060ff166108e95750600060028201819055600180830182905560038301805460ff1990811690915583541681178355815480820183559180527f290decd9548b62a8d60345a988386fc84ba6bc95484008f6362f93160ef3e56390910180547fffffffffffffffffffffffff000000000000000000000000000000000000000016331790556108ed565b5060005b7f594b13a75635d7a1d0d9616388087b6c253fa290482b75bfbea722d7c3d7f04160018260405161091f929190611704565b60405180910390a15050565b33600090815260016020526040908190206003015490517fd0f100f24f7c28024609f25a3abcc5be56f2f402721b0d86f410a0918fb7a760916108419160ff909116906116f9565b6109c4831060006306422c4083858161098857fe5b046305f5e100021190506000828061099d5750815b9050611d4c861160006305a995c08688816109b457fe5b046305f5e1000210905060008280156109ca5750815b90506109d4611361565b506001600160a01b03808b166000908152600160208181526040928390208351608081018552815460ff908116151582529382015492810192909252600281015482850181905260039091015490921615156060820152600554925163095ea7b360e01b8152909391929091169063095ea7b390610a5890309085906004016116e0565b602060405180830381600087803b158015610abb5762461bcd60e51b6000908152602060045260256024527f54617267657420636f6e747261637420646f6573206e6f7420636f6e7461696e60449081526420636f646560d81b60645290608490fd5b505af1158015610acf573d6000803e3d6000fd5b505050506040513d601f19601f82011682018060405250810190610af39190611488565b610b0f5760405162461bcd60e51b815260040161058e906117d4565b6005546003546040516323b872dd60e01b81526001600160a01b03928316926323b872dd92610b48923092909116908690600401611681565b602060405180830381600087803b158015610bab5762461bcd60e51b6000908152602060045260256024527f54617267657420636f6e747261637420646f6573206e6f7420636f6e7461696e60449081526420636f646560d81b60645290608490fd5b505af1158015610bbf573d6000803e3d6000fd5b505050506040513d601f19601f82011682018060405250810190610be39190611488565b610bff5760405162461bcd60e51b815260040161058e9061185c565b6003546040516301bf192360e21b81526001600160a01b03909116906306fc648c90610c329085906001906004016118ad565b608060405180830381600087803b158015610c955762461bcd60e51b6000908152602060045260256024527f54617267657420636f6e747261637420646f6573206e6f7420636f6e7461696e60449081526420636f646560d81b60645290608490fd5b505af1158015610ca9573d6000803e3d6000fd5b505050506040513d601f19601f82011682018060405250810190610ccd91906114e5565b6001600160a01b038d166000908152600160208181526040928390208451815490151560ff1991821617825591850151818401558385015160028201556060850151600390910180549115159190921617905590519193507ff64079d6c9709e69cdeb0e27b2552e1a967bbd06cf90b5d23d74eba54636c02e916107e0919081908f908f908f908d908b90611716565b6005546040516323b872dd60e01b81526001600160a01b03909116906323b872dd90610d9190339030908690600401611681565b602060405180830381600087803b158015610df45762461bcd60e51b6000908152602060045260256024527f54617267657420636f6e747261637420646f6573206e6f7420636f6e7461696e60449081526420636f646560d81b60645290608490fd5b505af1158015610e08573d6000803e3d6000fd5b505050506040513d601f19601f82011682018060405250810190610e2c9190611488565b610e485760405162461bcd60e51b815260040161058e90611825565b33600090815260016020526040908190206002810180548481019182905592519192917fe17978ba6ccb1ea930aba3d1d1eb2c586993d49e5a649080982994e327cff0d191610e99918491906118ee565b60405180910390a1505050565b600480546040516323b872dd60e01b81526001600160a01b03909116916323b872dd91610ed99133913091879101611681565b602060405180830381600087803b158015610f3c5762461bcd60e51b6000908152602060045260256024527f54617267657420636f6e747261637420646f6573206e6f7420636f6e7461696e60449081526420636f646560d81b60645290608490fd5b505af1158015610f50573d6000803e3d6000fd5b505050506040513d601f19601f82011682018060405250810190610f749190611488565b610f905760405162461bcd60e51b815260040161058e9061179d565b3360009081526001602081905260409182902090810180548481019182905592519192917f04768d535faeb3da91161576666e6eeae28e38af119b18462c02a345abc7989891610e99918491906118ee565b3360009081526001602052604090819020600301805460ff1916831515179081905590517fd0f100f24f7c28024609f25a3abcc5be56f2f402721b0d86f410a0918fb7a760916110379160ff909116906116f9565b60405180910390a150565b6002546040517f791db3610000000000000000000000000000000000000000000000000000000081526001600160a01b039091169063791db361906110ad9030907f29c240fe00000000000000000000000000000000000000000000000000000000906004016116a5565b600060405180830381600087803b1580156111105762461bcd60e51b6000908152602060045260256024527f54617267657420636f6e747261637420646f6573206e6f7420636f6e7461696e60449081526420636f646560d81b60645290608490fd5b505af1158015611124573d6000803e3d6000fd5b50505050565b801561114b5761114632611770633e95ba8063389fd980610973565b611161565b61116132610fa063389fd980633e95ba806103f6565b50565b336000908152600160205260409081902054905160ff909116907f772becca9f9d9f49ba2cc28a82d9ac30b2ad1ca5a60f1b2a461f937ec0e315cd906110379083906116f9565b60606000805b60005481101561124b576111c3611361565b600160008084815481106111d357fe5b60009182526020808320909101546001600160a01b0316835282810193909352604091820190208151608081018352815460ff90811615158252600183015494820194909452600282015492810192909252600301549091161580156060830152909150611242576001909201915b506001016111b1565b5060608167ffffffffffffffff8111801561126557600080fd5b5060405190808252806020026020018201604052801561129f57816020015b61128c611361565b8152602001906001900390816112845790505b5090506000805b600054811015611358576112b8611361565b600160008084815481106112c857fe5b60009182526020808320909101546001600160a01b0316835282810193909352604091820190208151608081018352815460ff9081161515825260018301549482019490945260028201549281019290925260030154909116158015606083015290915061134f578084848060010195508151811061134357fe5b60200260200101819052505b506001016112a6565b50909250505090565b604051806080016040528060001515815260200160008152602001600081526020016000151581525090565b805161139881611923565b92915050565b600080600080608085870312156113f45762461bcd60e51b8452602060045260226024527f414249206465636f64696e673a207475706c65206461746120746f6f2073686f604452611c9d60f21b606452608484fd5b84356001600160a01b038116811461140a578485fd5b966020860135965060408601359560600135945092505050565b6000602082840312156114765762461bcd60e51b8152602060045260226024527f414249206465636f64696e673a207475706c65206461746120746f6f2073686f604452611c9d60f21b606452608481fd5b813561148181611923565b9392505050565b6000602082840312156114da5762461bcd60e51b8152602060045260226024527f414249206465636f64696e673a207475706c65206461746120746f6f2073686f604452611c9d60f21b606452608481fd5b815161148181611923565b6000608082840312156115375762461bcd60e51b8152602060045260226024527f414249206465636f64696e673a207475706c65206461746120746f6f2073686f604452611c9d60f21b606452608481fd5b6040516080810181811067ffffffffffffffff82111715611556578283fd5b604052611563848461138d565b81526020830151602082015260408301516040820152611586846060850161138d565b60608201529392505050565b6000602082840312156115e45762461bcd60e51b8152602060045260226024527f414249206465636f64696e673a207475706c65206461746120746f6f2073686f604452611c9d60f21b606452608481fd5b5035919050565b6000806000606084860312156116405762461bcd60e51b8352602060045260226024527f414249206465636f64696e673a207475706c65206461746120746f6f2073686f604452611c9d60f21b606452608483fd5b505081359360208301359350604090920135919050565b80511515825260208101516020830152604081015160408301526060810151151560608301525050565b6001600160a01b039384168152919092166020820152604081019190915260600190565b6001600160a01b039290921682527fffffffff0000000000000000000000000000000000000000000000000000000016602082015260400190565b6001600160a01b03929092168252602082015260400190565b901515815260200190565b91151582521515602082015260400190565b96151587529415156020870152604086019390935260608501919091526080840152151560a0830152151560c082015260e00190565b60208082526031908201527f5472616e73666572206f66205455534420746f20546f6b656e537761707065726040820152701031b7b73a3930b1ba103330b4b632b21760791b606082015260800190565b60208082526016908201527f4465706f736974206f662054555344206661696c656400000000000000000000604082015260600190565b60208082526031908201527f417070726f76616c206f66205742544320746f20546f6b656e537761707065726040820152701031b7b73a3930b1ba103330b4b632b21760791b606082015260800190565b60208082526016908201527f4465706f736974206f662057425443206661696c656400000000000000000000604082015260600190565b60208082526031908201527f5472616e73666572206f66205742544320746f20546f6b656e537761707065726040820152701031b7b73a3930b1ba103330b4b632b21760791b606082015260800190565b60a081016118bb8285611657565b82151560808301529392505050565b60c081016118d88286611657565b921515608082015290151560a090910152919050565b918252602082015260400190565b94855260208501939093526040840191909152151560608301521515608082015260a00190565b801515811461116157600080fdfea26469706673582212209abe743f6bfabe725d5b11edb4121ae13870cb037c23c96546d695b8c963783464736f6c634300060c00336080604052600160045534801561005b5762461bcd60e51b6000908152602060045260226024527f45746865722073656e7420746f206e6f6e2d70617961626c652066756e63746960449081526137b760f11b60645290608490fd5b5061007973a36085f69e2889c224210f603d836748e7dc008861007e565b6100a0565b600280546001600160a01b0319166001600160a01b0392909216919091179055565b61119b806100af6000396000f3fe60806040523480156100715762461bcd60e51b6000908152602060045260226024527f45746865722073656e7420746f206e6f6e2d70617961626c652066756e63746960449081527f6f6e00000000000000000000000000000000000000000000000000000000000060645290608490fd5b50600436106100a25760003560e01c806330f92dc0146101085780635381addd1461011d578063791db36114610130575b62461bcd60e51b6000908152602060045260356024527f436f6e747261637420646f6573206e6f7420686176652066616c6c6261636b2060449081527f6e6f7220726563656976652066756e6374696f6e73000000000000000000000060645290608490fd5b61011b610116366004610e48565b610143565b005b61011b61012b366004610e48565b6101e6565b61011b61013e366004610d57565b61027b565b60008281526005602052604090205482906001600160a01b031633146101845760405162461bcd60e51b815260040161017b906110c6565b60405180910390fd5b600081815260056020526040808220805473ffffffffffffffffffffffffffffffffffffffff191690555182917f7cc135e0cebb02c3480ae5d74d377283180a2601f8f644edf7987b009316c63a91a260068290556101e16102dd565b505050565b60008281526005602052604090205482906001600160a01b0316331461021e5760405162461bcd60e51b815260040161017b906110c6565b600081815260056020526040808220805473ffffffffffffffffffffffffffffffffffffffff191690555182917f7cc135e0cebb02c3480ae5d74d377283180a2601f8f644edf7987b009316c63a91a260088290556101e16103c6565b6009805473ffffffffffffffffffffffffffffffffffffffff19166001600160a01b038416177fffffffffffffffff00000000ffffffffffffffffffffffffffffffffffffffff16600160a01b60e084901c021790556102d96104bb565b5050565b6000736135b13325bfc4b00278b4abc5e20bbce2d6580e90506000816001600160a01b031663feaf968c6040518163ffffffff1660e01b815260040160a06040518083038186803b15801561037a5762461bcd60e51b6000908152602060045260256024527f54617267657420636f6e747261637420646f6573206e6f7420636f6e7461696e60449081526420636f646560d81b60645290608490fd5b505afa15801561038e573d6000803e3d6000fd5b505050506040513d601f19601f820116820180604052508101906103b29190610eaa565b505050600781905591506102d990506104c5565b600954600654600754600854604051606094600160a01b900460e01b936103f39390929091602401611123565b60408051601f198184030181529181526020820180517bffffffffffffffffffffffffffffffffffffffffffffffffffffffff166001600160e01b03199094169390931790925260095491519092506000916001600160a01b03169061045a908490610f68565b600060405180830381855af49150503d8060008114610495576040519150601f19603f3d011682016040523d82523d6000602084013e61049a565b606091505b50509050806102d95760405162461bcd60e51b815260040161017b9061108f565b6104c36105c0565b565b6104cd610cee565b6105187f3335653134646264343930663465336239666265393262383562333264393861307f5381addd0000000000000000000000000000000000000000000000000000000061073a565b90506105996040518060400160405280600481526020017f64617973000000000000000000000000000000000000000000000000000000008152506040518060400160405280600181526020017f31000000000000000000000000000000000000000000000000000000000000008152508361075f9092919063ffffffff16565b6102d973ff07c97631ff3bab5e5e5660cdf47aded8d4d4fd82670de0b6b3a764000061077d565b6105c8610cee565b6106137f6537626565643134643036643437373139326566333065646337323535376231307f30f92dc00000000000000000000000000000000000000000000000000000000061073a565b90506106946040518060400160405280600581526020017f746f6b656e0000000000000000000000000000000000000000000000000000008152506040518060400160405280600381526020017f42544300000000000000000000000000000000000000000000000000000000008152508361075f9092919063ffffffff16565b6107136040518060400160405280600681526020017f706572696f6400000000000000000000000000000000000000000000000000008152506040518060400160405280600281526020017f32340000000000000000000000000000000000000000000000000000000000008152508361075f9092919063ffffffff16565b6102d97356dd6586db0d08c6ce7b2f2805af28616e0824558267016345785d8a000061077d565b610742610cee565b61074a610cee565b61075681868686610912565b95945050505050565b608083015161076e908361094f565b60808301516101e1908261094f565b600030600454604051602001610794929190610f84565b60408051808303601f190181529181528151602092830120600454606087015260008181526005909352818320805473ffffffffffffffffffffffffffffffffffffffff19166001600160a01b038916179055905190925082917fb5e6e01e79f91267dc17b4e6314d5d4d03593d2ceee0fbb452b750bd70ea5af991a26002546001600160a01b0316634000aea0858461082d87610966565b6040518463ffffffff1660e01b815260040161084b9392919061100a565b602060405180830381600087803b1580156108ae5762461bcd60e51b6000908152602060045260256024527f54617267657420636f6e747261637420646f6573206e6f7420636f6e7461696e60449081526420636f646560d81b60645290608490fd5b505af11580156108c2573d6000803e3d6000fd5b505050506040513d601f19601f820116820180604052508101906108e69190610de7565b6109025760405162461bcd60e51b815260040161017b90611032565b6004805460010190559392505050565b61091a610cee565b61092a85608001516101006109f7565b50509183526001600160a01b031660208301526001600160e01b031916604082015290565b61095c8260038351610a37565b6101e18282610b11565b6060634042994660e01b600080846000015185602001518660400151876060015160018960800151600001516040516024016109a9989796959493929190610fa6565b60408051601f198184030181529190526020810180517bffffffffffffffffffffffffffffffffffffffffffffffffffffffff166001600160e01b0319909316929092179091529050919050565b6109ff610d23565b6020820615610a145760208206602003820191505b506020808301829052604080518085526000815283019091019052815b92915050565b60178111610a5857610a528360e0600585901b168317610b32565b506101e1565b60ff8111610a8257610a75836018611fe0600586901b1617610b32565b50610a5283826001610b4a565b61ffff8111610aad57610aa0836019611fe0600586901b1617610b32565b50610a5283826002610b4a565b63ffffffff8111610ada57610acd83601a611fe0600586901b1617610b32565b50610a5283826004610b4a565b67ffffffffffffffff81116101e157610afe83601b611fe0600586901b1617610b32565b50610b0b83826008610b4a565b50505050565b610b19610d23565b610b2b83846000015151848551610b6b565b9392505050565b610b3a610d23565b610b2b8384600001515184610c17565b610b52610d23565b610b63848560000151518585610c62565b949350505050565b610b73610d23565b8251821115610b8157600080fd5b84602001518285011115610bab57610bab85610ba38760200151878601610cc0565b600202610cd7565b600080865180518760208301019350808887011115610bca5787860182525b505050602084015b60208410610bf15780518252601f199093019260209182019101610bd2565b51815160001960208690036101000a019081169019919091161790525083949350505050565b610c1f610d23565b83602001518310610c3b57610c3b848560200151600202610cd7565b835180516020858301018481535080851415610c58576001810182525b5093949350505050565b610c6a610d23565b84602001518483011115610c8757610c8785858401600202610cd7565b60006001836101000a039050855183868201018583198251161781525080518487011115610cb55783860181525b509495945050505050565b600081831115610cd1575081610a31565b50919050565b8151610ce383836109f7565b50610b0b8382610b11565b6040805160a081018252600080825260208201819052918101829052606081019190915260808101610d1e610d23565b905290565b604051806040016040528060608152602001600081525090565b805169ffffffffffffffffffff81168114610a3157600080fd5b60008060408385031215610daa5762461bcd60e51b8252602060045260226024527f414249206465636f64696e673a207475706c65206461746120746f6f2073686f604452611c9d60f21b606452608482fd5b82356001600160a01b0381168114610dc0578283fd5b915060208301356001600160e01b031981168114610ddc578182fd5b809150509250929050565b600060208284031215610e395762461bcd60e51b8152602060045260226024527f414249206465636f64696e673a207475706c65206461746120746f6f2073686f604452611c9d60f21b606452608481fd5b81518015158114610b2b578182fd5b60008060408385031215610e9b5762461bcd60e51b8252602060045260226024527f414249206465636f64696e673a207475706c65206461746120746f6f2073686f604452611c9d60f21b606452608482fd5b50508035926020909101359150565b600080600080600060a08688031215610f025762461bcd60e51b8152602060045260226024527f414249206465636f64696e673a207475706c65206461746120746f6f2073686f604452611c9d60f21b606452608481fd5b610f0c8787610d3d565b9450602086015193506040860151925060608601519150610f308760808801610d3d565b90509295509295909350565b60008151808452610f54816020860160208601611139565b601f01601f19169290920160200192915050565b60008251610f7a818460208701611139565b9190910192915050565b60609290921b6bffffffffffffffffffffffff19168252601482015260340190565b60006101006001600160a01b03808c1684528a60208501528960408501528089166060850152506001600160e01b0319871660808401528560a08401528460c08401528060e0840152610ffb81840185610f3c565b9b9a5050505050505050505050565b60006001600160a01b0385168252836020830152606060408301526107566060830184610f3c565b60208082526023908201527f756e61626c6520746f207472616e73666572416e6443616c6c20746f206f726160408201527f636c650000000000000000000000000000000000000000000000000000000000606082015260800190565b60208082526018908201527f556e61626c6520746f2063726561746520726571756573740000000000000000604082015260600190565b60208082526028908201527f536f75726365206d75737420626520746865206f7261636c65206f662074686560408201527f2072657175657374000000000000000000000000000000000000000000000000606082015260800190565b9283526020830191909152604082015260600190565b60005b8381101561115457818101518382015260200161113c565b83811115610b0b575050600091015256fea2646970667358221220afa71976621e7accd458edda0fd6a118e0828de9984064b8f62a5c15369d173d64736f6c634300060c003360806040523480156100565762461bcd60e51b6000908152602060045260226024527f45746865722073656e7420746f206e6f6e2d70617961626c652066756e63746960449081526137b760f11b60645290608490fd5b50604051610c64380380610c64833981016040819052610075916100a6565b600080546001600160a01b039384166001600160a01b03199182161790915560018054929093169116179055610138565b600080604083850312156100f95762461bcd60e51b8252602060045260226024527f414249206465636f64696e673a207475706c65206461746120746f6f2073686f604452611c9d60f21b606452608482fd5b825161010481610120565b602084015190925061011581610120565b809150509250929050565b6001600160a01b038116811461013557600080fd5b50565b610b1d806101476000396000f3fe60806040523480156100715762461bcd60e51b6000908152602060045260226024527f45746865722073656e7420746f206e6f6e2d70617961626c652066756e63746960449081527f6f6e00000000000000000000000000000000000000000000000000000000000060645290608490fd5b50600436106100975760003560e01c806306fc648c146100fd578063516f144414610126575b62461bcd60e51b6000908152602060045260356024527f436f6e747261637420646f6573206e6f7420686176652066616c6c6261636b2060449081527f6e6f7220726563656976652066756e6374696f6e73000000000000000000000060645290608490fd5b61011061010b366004610878565b610139565b60405161011d91906109f0565b60405180910390f35b6101106101343660046108f0565b61016a565b61014161054d565b811561015757610150836101a2565b9250610163565b6101608361025c565b92505b5090919050565b61017261054d565b8215610188576101818461025c565b935061019a565b811561019a57610197846101a2565b93505b509192915050565b6101aa61054d565b604082015115610258576040805160028082526060808301845292602083019080368337505060015482519293506001600160a01b0316918391506000906101ee57fe5b6001600160a01b03928316602091820292909201015260005482519116908290600190811061021957fe5b60200260200101906001600160a01b031690816001600160a01b0316815250506000610249846040015183610314565b60208501525050600060408301525b5090565b61026461054d565b60208201511561025857604080516002808252606080830184529260208301908036833750506000805483519394506001600160a01b0316928492506102a657fe5b6001600160a01b03928316602091820292909201015260018054835192169183919081106102d057fe5b60200260200101906001600160a01b031690816001600160a01b0316815250506000610300846020015183610314565b600060208601526040850152509192915050565b60008160008151811061032357fe5b60200260200101516001600160a01b031663095ea7b3731b02da8cb0d097eb8d57a175b88c7d8b47997506856040518363ffffffff1660e01b815260040161036c92919061097a565b602060405180830381600087803b1580156103cf5762461bcd60e51b6000908152602060045260256024527f54617267657420636f6e747261637420646f6573206e6f7420636f6e7461696e60449081526420636f646560d81b60645290608490fd5b505af11580156103e3573d6000803e3d6000fd5b505050506040513d601f19601f820116820180604052508101906104079190610814565b61042c5760405162461bcd60e51b815260040161042390610993565b60405180910390fd5b6040517f38ed1739000000000000000000000000000000000000000000000000000000008152731b02da8cb0d097eb8d57a175b88c7d8b479975069060609082906338ed17399061048a908890600190899030904290600401610a1f565b600060405180830381600087803b1580156104ed5762461bcd60e51b6000908152602060045260256024527f54617267657420636f6e747261637420646f6573206e6f7420636f6e7461696e60449081526420636f646560d81b60645290608490fd5b505af1158015610501573d6000803e3d6000fd5b505050506040513d6000823e601f3d908101601f19168201604052610529919081019061062e565b90508060018251038151811061053b57fe5b60200260200101519250505092915050565b604051806080016040528060001515815260200160008152602001600081526020016000151581525090565b6000608082840312156105e65762461bcd60e51b8152602060045260236024527f414249206465636f64696e673a20737472756374206461746120746f6f2073686044527f6f72740000000000000000000000000000000000000000000000000000000000606452608481fd5b6105f06080610a8f565b905081356105fd81610ad6565b808252506020820135602082015260408201356040820152606082013561062381610ad6565b606082015292915050565b600060208083850312156106805762461bcd60e51b82528060045260226024527f414249206465636f64696e673a207475706c65206461746120746f6f2073686f604452611c9d60f21b606452608482fd5b825167ffffffffffffffff8111156106f15762461bcd60e51b83528160045260226024527f414249206465636f64696e673a20696e76616c6964207475706c65206f6666736044527f6574000000000000000000000000000000000000000000000000000000000000606452608483fd5b8301601f8101851361075c5762461bcd60e51b835281600452602b6024527f414249206465636f64696e673a20696e76616c69642063616c6c6461746120616044527f72726179206f6666736574000000000000000000000000000000000000000000606452608483fd5b805161076f61076a82610ab6565b610a8f565b81815283810190838501858402850186018910156107e65762461bcd60e51b875285600452602b6024527f414249206465636f64696e673a20696e76616c69642063616c6c6461746120616044527f7272617920737472696465000000000000000000000000000000000000000000606452608487fd5b8694505b838510156108085780518352600194909401939185019185016107ea565b50979650505050505050565b6000602082840312156108665762461bcd60e51b8152602060045260226024527f414249206465636f64696e673a207475706c65206461746120746f6f2073686f604452611c9d60f21b606452608481fd5b815161087181610ad6565b9392505050565b60008060a083850312156108cb5762461bcd60e51b8152602060045260226024527f414249206465636f64696e673a207475706c65206461746120746f6f2073686f604452611c9d60f21b606452608481fd5b6108d58484610579565b915060808301356108e581610ad6565b809150509250929050565b600080600060c084860312156109455762461bcd60e51b8152602060045260226024527f414249206465636f64696e673a207475706c65206461746120746f6f2073686f604452611c9d60f21b606452608481fd5b61094f8585610579565b9250608084013561095f81610ad6565b915060a084013561096f81610ad6565b809150509250925092565b6001600160a01b03929092168252602082015260400190565b60208082526031908201527f417070726f76616c20666f72207377617070696e672066726f6d20737461727460408201527f696e6720746f6b656e206661696c65642e000000000000000000000000000000606082015260800190565b815115158152602080830151908201526040808301519082015260609182015115159181019190915260800190565b600060a082018783526020878185015260a0604085015281875180845260c0860191508289019350845b81811015610a6e5784516001600160a01b031683529383019391830191600101610a49565b50506001600160a01b03969096166060850152505050608001529392505050565b60405181810167ffffffffffffffff81118282101715610aae57600080fd5b604052919050565b600067ffffffffffffffff821115610acc578081fd5b5060209081020190565b8015158114610ae457600080fd5b5056fea2646970667358221220754eb3aa315af4e680c9aded91fbadda8e263d2ab38b96273cd9d0bf4268c04664736f6c634300060c0033",
  "linkReferences": {},
  "deployedLinkReferences": {}
}