{
  "_format": "hh-sol-artifact-1",
  "contractName": "SwapAI",
  "sourceName": "contracts/SwapAI.sol",
  "abi": [
    {
      "inputs": [
        {
          "internalType": "address",
          "name": "_tusdTokenAddr",
          "type": "address"
        },
        {
          "internalType": "address",
          "name": "_wbtcTokenAddr",
          "type": "address"
        },
        {
          "internalType": "address",
          "name": "_oracleMasterAddr",
          "type": "address"
        },
        {
          "internalType": "address",
          "name": "_tokenSwapperAddr",
          "type": "address"
        }
      ],
      "stateMutability": "nonpayable",
      "type": "constructor"
    },
    {
      "anonymous": false,
      "inputs": [
        {
          "indexed": false,
          "internalType": "uint256",
          "name": "btcSentiment",
          "type": "uint256"
        },
        {
          "indexed": false,
          "internalType": "uint256",
          "name": "btcPriceCurrent",
          "type": "uint256"
        },
        {
          "indexed": false,
          "internalType": "uint256",
          "name": "btcPricePrediction",
          "type": "uint256"
        },
        {
          "indexed": false,
          "internalType": "bool",
          "name": "isNegativeFuture",
          "type": "bool"
        },
        {
          "indexed": false,
          "internalType": "bool",
          "name": "isPositiveFuture",
          "type": "bool"
        }
      ],
      "name": "AutoSwap",
      "type": "event"
    },
    {
      "anonymous": false,
      "inputs": [
        {
          "indexed": false,
          "internalType": "uint256",
          "name": "oldAmount",
          "type": "uint256"
        },
        {
          "indexed": false,
          "internalType": "uint256",
          "name": "newAmount",
          "type": "uint256"
        }
      ],
      "name": "DepositTUSD",
      "type": "event"
    },
    {
      "anonymous": false,
      "inputs": [
        {
          "indexed": false,
          "internalType": "uint256",
          "name": "oldAmount",
          "type": "uint256"
        },
        {
          "indexed": false,
          "internalType": "uint256",
          "name": "newAmount",
          "type": "uint256"
        }
      ],
      "name": "DepositWBTC",
      "type": "event"
    },
    {
      "anonymous": false,
      "inputs": [
        {
          "indexed": false,
          "internalType": "bool",
          "name": "success",
          "type": "bool"
        },
        {
          "indexed": false,
          "internalType": "bool",
          "name": "toTUSD",
          "type": "bool"
        },
        {
          "indexed": false,
          "internalType": "uint256",
          "name": "btcSentiment",
          "type": "uint256"
        },
        {
          "indexed": false,
          "internalType": "uint256",
          "name": "btcPriceCurrent",
          "type": "uint256"
        },
        {
          "indexed": false,
          "internalType": "uint256",
          "name": "btcPricePrediction",
          "type": "uint256"
        },
        {
          "indexed": false,
          "internalType": "bool",
          "name": "isNegativeFuture",
          "type": "bool"
        },
        {
          "indexed": false,
          "internalType": "bool",
          "name": "isPositiveFuture",
          "type": "bool"
        }
      ],
      "name": "ManualSwap",
      "type": "event"
    },
    {
      "anonymous": false,
      "inputs": [
        {
          "indexed": false,
          "internalType": "bool",
          "name": "optInStatus",
          "type": "bool"
        }
      ],
      "name": "OptInStatus",
      "type": "event"
    },
    {
      "anonymous": false,
      "inputs": [
        {
          "indexed": false,
          "internalType": "bool",
          "name": "success",
          "type": "bool"
        },
        {
          "indexed": false,
          "internalType": "bool",
          "name": "isNewUser",
          "type": "bool"
        }
      ],
      "name": "RegisterUser",
      "type": "event"
    },
    {
      "anonymous": false,
      "inputs": [
        {
          "indexed": false,
          "internalType": "uint256",
          "name": "tusdBalance",
          "type": "uint256"
        },
        {
          "indexed": false,
          "internalType": "uint256",
          "name": "wbtcBalance",
          "type": "uint256"
        }
      ],
      "name": "UserBalance",
      "type": "event"
    },
    {
      "anonymous": false,
      "inputs": [
        {
          "indexed": false,
          "internalType": "bool",
          "name": "userExists",
          "type": "bool"
        }
      ],
      "name": "UserExists",
      "type": "event"
    },
    {
      "inputs": [
        {
          "internalType": "uint256",
          "name": "btcSentiment",
          "type": "uint256"
        },
        {
          "internalType": "uint256",
          "name": "btcPriceCurrent",
          "type": "uint256"
        },
        {
          "internalType": "uint256",
          "name": "btcPricePrediction",
          "type": "uint256"
        }
      ],
      "name": "_analyzeResults",
      "outputs": [
        {
          "internalType": "bool",
          "name": "",
          "type": "bool"
        },
        {
          "internalType": "bool",
          "name": "",
          "type": "bool"
        }
      ],
      "stateMutability": "pure",
      "type": "function"
    },
    {
      "inputs": [
        {
          "internalType": "uint256",
          "name": "btcSentiment",
          "type": "uint256"
        },
        {
          "internalType": "uint256",
          "name": "btcPriceCurrent",
          "type": "uint256"
        },
        {
          "internalType": "uint256",
          "name": "btcPricePrediction",
          "type": "uint256"
        }
      ],
      "name": "_processAnalysisAuto",
      "outputs": [],
      "stateMutability": "nonpayable",
      "type": "function"
    },
    {
      "inputs": [
        {
          "internalType": "uint256",
          "name": "btcSentiment",
          "type": "uint256"
        },
        {
          "internalType": "uint256",
          "name": "btcPriceCurrent",
          "type": "uint256"
        },
        {
          "internalType": "uint256",
          "name": "btcPricePrediction",
          "type": "uint256"
        }
      ],
      "name": "_processAnalysisManualToTUSD",
      "outputs": [],
      "stateMutability": "nonpayable",
      "type": "function"
    },
    {
      "inputs": [
        {
          "internalType": "uint256",
          "name": "btcSentiment",
          "type": "uint256"
        },
        {
          "internalType": "uint256",
          "name": "btcPriceCurrent",
          "type": "uint256"
        },
        {
          "internalType": "uint256",
          "name": "btcPricePrediction",
          "type": "uint256"
        }
      ],
      "name": "_processAnalysisManualToWBTC",
      "outputs": [],
      "stateMutability": "nonpayable",
      "type": "function"
    },
    {
      "inputs": [
        {
          "internalType": "uint256",
          "name": "depositAmount",
          "type": "uint256"
        }
      ],
      "name": "depositTUSD",
      "outputs": [],
      "stateMutability": "nonpayable",
      "type": "function"
    },
    {
      "inputs": [
        {
          "internalType": "uint256",
          "name": "depositAmount",
          "type": "uint256"
        }
      ],
      "name": "depositWBTC",
      "outputs": [],
      "stateMutability": "nonpayable",
      "type": "function"
    },
    {
      "inputs": [],
      "name": "fetchOptInStatus",
      "outputs": [],
      "stateMutability": "nonpayable",
      "type": "function"
    },
    {
      "inputs": [],
      "name": "fetchUserBalance",
      "outputs": [],
      "stateMutability": "nonpayable",
      "type": "function"
    },
    {
      "inputs": [
        {
          "internalType": "bool",
          "name": "toTUSD",
          "type": "bool"
        }
      ],
      "name": "manualSwapUserBalance",
      "outputs": [],
      "stateMutability": "nonpayable",
      "type": "function"
    },
    {
      "inputs": [],
      "name": "registerUser",
      "outputs": [],
      "stateMutability": "nonpayable",
      "type": "function"
    },
    {
      "inputs": [
        {
          "internalType": "bool",
          "name": "newOptInStatus",
          "type": "bool"
        }
      ],
      "name": "setOptInStatus",
      "outputs": [],
      "stateMutability": "nonpayable",
      "type": "function"
    },
    {
      "inputs": [],
      "name": "smartSwapAllBalances",
      "outputs": [],
      "stateMutability": "nonpayable",
      "type": "function"
    },
    {
      "inputs": [],
      "name": "userExists",
      "outputs": [],
      "stateMutability": "nonpayable",
      "type": "function"
    }
  ],
  "bytecode": "0x6080604052348015620000575762461bcd60e51b6000908152602060045260226024527f45746865722073656e7420746f206e6f6e2d70617961626c652066756e63746960449081526137b760f11b60645290608490fd5b5060405162001794380380620017948339810160408190526200007a91620000ec565b600480546001600160a01b039586166001600160a01b03199182161790915560058054948616948216949094179093556002805492851692841692909217909155600380549190931691161790556200018d565b80516001600160a01b0381168114620000e657600080fd5b92915050565b60008060008060808587031215620001435762461bcd60e51b8452602060045260226024527f414249206465636f64696e673a207475706c65206461746120746f6f2073686f604452611c9d60f21b606452608484fd5b6200014f8686620000ce565b9350620001608660208701620000ce565b9250620001718660408701620000ce565b9150620001828660608701620000ce565b905092959194509250565b6115f7806200019d6000396000f3fe60806040523480156100715762461bcd60e51b6000908152602060045260226024527f45746865722073656e7420746f206e6f6e2d70617961626c652066756e63746960449081527f6f6e00000000000000000000000000000000000000000000000000000000000060645290608490fd5b50600436106101405760003560e01c8063a62281ed116100ed578063c629e176116100c7578063c629e17614610232578063c7100e5d1461023a578063def5f93314610264578063eae6d4da1461027757610140565b8063a62281ed146101f9578063aaf71e421461020c578063ac00adba1461021f57610140565b806354c9f0891161011e57806354c9f089146101cb5780635fb9f184146101d3578063737ec20f146101e657610140565b806329c240fe146101a65780634848907b146101bb5780634d3820eb146101c3575b62461bcd60e51b6000908152602060045260356024527f436f6e747261637420646f6573206e6f7420686176652066616c6c6261636b2060449081527f6e6f7220726563656976652066756e6374696f6e73000000000000000000000060645290608490fd5b6101b96101b4366004611266565b61027f565b005b6101b96103cd565b6101b9610422565b6101b9610505565b6101b96101e1366004611266565b61054d565b6101b96101f436600461120d565b610604565b6101b961020736600461120d565b610756565b6101b961021a3660046110a6565b610892565b6101b961022d366004611266565b6108f2565b6101b961099a565b61024d610248366004611266565b610a82565b60405161025b929190611355565b60405180910390f35b6101b96102723660046110a6565b610aed565b6101b9610b25565b60008061028d858585610a82565b909250905060005b6000548110156103865760008082815481106102ad57fe5b60009182526020808320909101546001600160a01b03168083526001909152604090912060038101549192509060ff161561037c5783156103315760408051608081018252825460ff908116151582526001840154602083015260028401549282019290925260038301549091161515606082015261032b90610b6c565b5061037c565b841561037c5760408051608081018252825460ff908116151582526001840154602083015260028401549282019290925260038301549091161515606082015261037a90610e3a565b505b5050600101610295565b507f3cdaa4f71cc8b876438cefb47473f1162311d7f2a01008809005cf090941180b85858585856040516103be95949392919061158c565b60405180910390a15050505050565b336000908152600160208190526040918290209081015460029091015491517f3e243e6d57641744143b337e8a56c38f7b922c81bfa4b9133d142a335defb67392610418929161157e565b60405180910390a1565b336000908152600160205260408120805490919060ff166104c35750805460ff1990811660019081178355600060028401819055838201819055600384018054909316909255815480820183559180527f290decd9548b62a8d60345a988386fc84ba6bc95484008f6362f93160ef3e56390910180547fffffffffffffffffffffffff000000000000000000000000000000000000000016331790556104c7565b5060005b7f594b13a75635d7a1d0d9616388087b6c253fa290482b75bfbea722d7c3d7f0416001826040516104f9929190611355565b60405180910390a15050565b33600090815260016020526040908190206003015490517fd0f100f24f7c28024609f25a3abcc5be56f2f402721b0d86f410a0918fb7a760916104189160ff9091169061134a565b60008061055b858585610a82565b336000908152600160208181526040928390208351608081018552815460ff908116151582529382015492810192909252600281015493820193909352600383015490911615156060820152929450909250906105b790610e3a565b507ff64079d6c9709e69cdeb0e27b2552e1a967bbd06cf90b5d23d74eba54636c02e60018088888888886040516105f49796959493929190611367565b60405180910390a1505050505050565b6005546040516323b872dd60e01b81526001600160a01b03909116906323b872dd90610638903390309086906004016112d2565b602060405180830381600087803b15801561069b5762461bcd60e51b6000908152602060045260256024527f54617267657420636f6e747261637420646f6573206e6f7420636f6e7461696e60449081526420636f646560d81b60645290608490fd5b505af11580156106af573d6000803e3d6000fd5b505050506040513d601f19601f820116820180604052508101906106d39190611103565b6106f85760405162461bcd60e51b81526004016106ef90611476565b60405180910390fd5b33600090815260016020526040908190206002810180548481019182905592519192917fe17978ba6ccb1ea930aba3d1d1eb2c586993d49e5a649080982994e327cff0d1916107499184919061157e565b60405180910390a1505050565b600480546040516323b872dd60e01b81526001600160a01b03909116916323b872dd9161078991339130918791016112d2565b602060405180830381600087803b1580156107ec5762461bcd60e51b6000908152602060045260256024527f54617267657420636f6e747261637420646f6573206e6f7420636f6e7461696e60449081526420636f646560d81b60645290608490fd5b505af1158015610800573d6000803e3d6000fd5b505050506040513d601f19601f820116820180604052508101906108249190611103565b6108405760405162461bcd60e51b81526004016106ef906113ee565b3360009081526001602081905260409182902090810180548481019182905592519192917f04768d535faeb3da91161576666e6eeae28e38af119b18462c02a345abc79898916107499184919061157e565b3360009081526001602052604090819020600301805460ff1916831515179081905590517fd0f100f24f7c28024609f25a3abcc5be56f2f402721b0d86f410a0918fb7a760916108e79160ff9091169061134a565b60405180910390a150565b600080610900858585610a82565b336000908152600160208181526040928390208351608081018552815460ff9081161515825293820154928101929092526002810154938201939093526003830154909116151560608201529294509092509061095c90610b6c565b507ff64079d6c9709e69cdeb0e27b2552e1a967bbd06cf90b5d23d74eba54636c02e6001600088888888886040516105f49796959493929190611367565b6002546040517f791db3610000000000000000000000000000000000000000000000000000000081526001600160a01b039091169063791db36190610a059030907f29c240fe00000000000000000000000000000000000000000000000000000000906004016112f6565b600060405180830381600087803b158015610a685762461bcd60e51b6000908152602060045260256024527f54617267657420636f6e747261637420646f6573206e6f7420636f6e7461696e60449081526420636f646560d81b60645290608490fd5b505af1158015610a7c573d6000803e3d6000fd5b50505050565b6000806109c48510816306422c40858781610a9957fe5b046305f5e1000211905060008280610aae5750815b9050611d4c881160006305a995c0888a81610ac557fe5b046305f5e100021090506000828015610adb5750815b939b939a509298505050505050505050565b8015610b0d57610b08611770633e95ba8063389fd98061054d565b610b22565b610b22610fa063389fd980633e95ba806108f2565b50565b336000908152600160205260409081902054905160ff909116907f772becca9f9d9f49ba2cc28a82d9ac30b2ad1ca5a60f1b2a461f937ec0e315cd906108e790839061134a565b610b74611069565b60208201516004805460405163095ea7b360e01b81526001600160a01b039091169163095ea7b391610baa913091869101611331565b602060405180830381600087803b158015610c0d5762461bcd60e51b6000908152602060045260256024527f54617267657420636f6e747261637420646f6573206e6f7420636f6e7461696e60449081526420636f646560d81b60645290608490fd5b505af1158015610c21573d6000803e3d6000fd5b505050506040513d601f19601f82011682018060405250810190610c459190611103565b610c615760405162461bcd60e51b81526004016106ef906114ad565b600480546003546040516323b872dd60e01b81526001600160a01b03928316936323b872dd93610c989330939116918791016112d2565b602060405180830381600087803b158015610cfb5762461bcd60e51b6000908152602060045260256024527f54617267657420636f6e747261637420646f6573206e6f7420636f6e7461696e60449081526420636f646560d81b60645290608490fd5b505af1158015610d0f573d6000803e3d6000fd5b505050506040513d601f19601f82011682018060405250810190610d339190611103565b610d4f5760405162461bcd60e51b81526004016106ef9061139d565b6003546040517f0514226b0000000000000000000000000000000000000000000000000000000081526001600160a01b0390911690630514226b90610d9890869060040161154f565b608060405180830381600087803b158015610dfb5762461bcd60e51b6000908152602060045260256024527f54617267657420636f6e747261637420646f6573206e6f7420636f6e7461696e60449081526420636f646560d81b60645290608490fd5b505af1158015610e0f573d6000803e3d6000fd5b505050506040513d601f19601f82011682018060405250810190610e339190611160565b9392505050565b610e42611069565b604080830151600554915163095ea7b360e01b815290916001600160a01b03169063095ea7b390610e799030908590600401611331565b602060405180830381600087803b158015610edc5762461bcd60e51b6000908152602060045260256024527f54617267657420636f6e747261637420646f6573206e6f7420636f6e7461696e60449081526420636f646560d81b60645290608490fd5b505af1158015610ef0573d6000803e3d6000fd5b505050506040513d601f19601f82011682018060405250810190610f149190611103565b610f305760405162461bcd60e51b81526004016106ef90611425565b6005546003546040516323b872dd60e01b81526001600160a01b03928316926323b872dd92610f699230929091169086906004016112d2565b602060405180830381600087803b158015610fcc5762461bcd60e51b6000908152602060045260256024527f54617267657420636f6e747261637420646f6573206e6f7420636f6e7461696e60449081526420636f646560d81b60645290608490fd5b505af1158015610fe0573d6000803e3d6000fd5b505050506040513d601f19601f820116820180604052508101906110049190611103565b6110205760405162461bcd60e51b81526004016106ef906114fe565b6003546040517fd11455650000000000000000000000000000000000000000000000000000000081526001600160a01b039091169063d114556590610d9890869060040161154f565b604051806080016040528060001515815260200160008152602001600081526020016000151581525090565b80516110a0816115b3565b92915050565b6000602082840312156110f85762461bcd60e51b8152602060045260226024527f414249206465636f64696e673a207475706c65206461746120746f6f2073686f604452611c9d60f21b606452608481fd5b8135610e33816115b3565b6000602082840312156111555762461bcd60e51b8152602060045260226024527f414249206465636f64696e673a207475706c65206461746120746f6f2073686f604452611c9d60f21b606452608481fd5b8151610e33816115b3565b6000608082840312156111b25762461bcd60e51b8152602060045260226024527f414249206465636f64696e673a207475706c65206461746120746f6f2073686f604452611c9d60f21b606452608481fd5b6040516080810181811067ffffffffffffffff821117156111d1578283fd5b6040526111de8484611095565b815260208301516020820152604083015160408201526112018460608501611095565b60608201529392505050565b60006020828403121561125f5762461bcd60e51b8152602060045260226024527f414249206465636f64696e673a207475706c65206461746120746f6f2073686f604452611c9d60f21b606452608481fd5b5035919050565b6000806000606084860312156112bb5762461bcd60e51b8252602060045260226024527f414249206465636f64696e673a207475706c65206461746120746f6f2073686f604452611c9d60f21b606452608482fd5b505081359360208301359350604090920135919050565b6001600160a01b039384168152919092166020820152604081019190915260600190565b6001600160a01b039290921682527fffffffff0000000000000000000000000000000000000000000000000000000016602082015260400190565b6001600160a01b03929092168252602082015260400190565b901515815260200190565b91151582521515602082015260400190565b96151587529415156020870152604086019390935260608501919091526080840152151560a0830152151560c082015260e00190565b60208082526031908201527f5472616e73666572206f66205455534420746f20546f6b656e537761707065726040820152701031b7b73a3930b1ba103330b4b632b21760791b606082015260800190565b60208082526016908201527f4465706f736974206f662054555344206661696c656400000000000000000000604082015260600190565b60208082526031908201527f417070726f76616c206f66205742544320746f20546f6b656e537761707065726040820152701031b7b73a3930b1ba103330b4b632b21760791b606082015260800190565b60208082526016908201527f4465706f736974206f662057425443206661696c656400000000000000000000604082015260600190565b60208082526031908201527f417070726f76616c206f66205455534420746f20546f6b656e537761707065726040820152701031b7b73a3930b1ba103330b4b632b21760791b606082015260800190565b60208082526031908201527f5472616e73666572206f66205742544320746f20546f6b656e537761707065726040820152701031b7b73a3930b1ba103330b4b632b21760791b606082015260800190565b815115158152602080830151908201526040808301519082015260609182015115159181019190915260800190565b918252602082015260400190565b94855260208501939093526040840191909152151560608301521515608082015260a00190565b8015158114610b2257600080fdfea2646970667358221220df8aa42bcfc1cf29a0da432011989971dc1b7d2cffd11913cc83d926963c26a564736f6c634300060c0033",
  "linkReferences": {},
  "deployedLinkReferences": {}
}