{
  "_format": "hh-sol-artifact-1",
  "contractName": "SwapAI",
  "sourceName": "contracts/SwapAI.sol",
  "abi": [
    {
      "anonymous": false,
      "inputs": [
        {
          "indexed": false,
          "internalType": "bool",
          "name": "createUserStatus",
          "type": "bool"
        }
      ],
      "name": "CreateUser",
      "type": "event"
    },
    {
      "anonymous": false,
      "inputs": [
        {
          "indexed": false,
          "internalType": "uint256",
          "name": "oldUserAmount",
          "type": "uint256"
        },
        {
          "indexed": false,
          "internalType": "uint256",
          "name": "newUserAmount",
          "type": "uint256"
        }
      ],
      "name": "DepositTUSD",
      "type": "event"
    },
    {
      "anonymous": false,
      "inputs": [
        {
          "indexed": false,
          "internalType": "uint256",
          "name": "oldUserAmount",
          "type": "uint256"
        },
        {
          "indexed": false,
          "internalType": "uint256",
          "name": "newUserAmount",
          "type": "uint256"
        }
      ],
      "name": "DepositWBTC",
      "type": "event"
    },
    {
      "anonymous": false,
      "inputs": [
        {
          "indexed": false,
          "internalType": "bool",
          "name": "optInStatus",
          "type": "bool"
        }
      ],
      "name": "OptInToggle",
      "type": "event"
    },
    {
      "anonymous": false,
      "inputs": [
        {
          "indexed": true,
          "internalType": "address",
          "name": "previousOwner",
          "type": "address"
        },
        {
          "indexed": true,
          "internalType": "address",
          "name": "newOwner",
          "type": "address"
        }
      ],
      "name": "OwnershipTransferred",
      "type": "event"
    },
    {
      "anonymous": false,
      "inputs": [
        {
          "indexed": false,
          "internalType": "bool",
          "name": "swapEligibleStatus",
          "type": "bool"
        }
      ],
      "name": "SwapEligibleUsersExist",
      "type": "event"
    },
    {
      "anonymous": false,
      "inputs": [
        {
          "indexed": false,
          "internalType": "uint256",
          "name": "WBTCBalance",
          "type": "uint256"
        },
        {
          "indexed": false,
          "internalType": "uint256",
          "name": "TUSDBalance",
          "type": "uint256"
        }
      ],
      "name": "UserBalance",
      "type": "event"
    },
    {
      "inputs": [],
      "name": "createUser",
      "outputs": [],
      "stateMutability": "nonpayable",
      "type": "function"
    },
    {
      "inputs": [
        {
          "internalType": "uint256",
          "name": "depositAmount",
          "type": "uint256"
        }
      ],
      "name": "depositTUSD",
      "outputs": [],
      "stateMutability": "nonpayable",
      "type": "function"
    },
    {
      "inputs": [
        {
          "internalType": "uint256",
          "name": "depositAmount",
          "type": "uint256"
        }
      ],
      "name": "depositWBTC",
      "outputs": [],
      "stateMutability": "nonpayable",
      "type": "function"
    },
    {
      "inputs": [],
      "name": "fetchUserBalance",
      "outputs": [],
      "stateMutability": "nonpayable",
      "type": "function"
    },
    {
      "inputs": [],
      "name": "getSwapEligibleUsers",
      "outputs": [
        {
          "components": [
            {
              "internalType": "address",
              "name": "userAddress",
              "type": "address"
            },
            {
              "internalType": "uint256",
              "name": "wbtcBalance",
              "type": "uint256"
            },
            {
              "internalType": "uint256",
              "name": "tusdBalance",
              "type": "uint256"
            },
            {
              "internalType": "bool",
              "name": "optInStatus",
              "type": "bool"
            }
          ],
          "internalType": "struct SwapUser[]",
          "name": "",
          "type": "tuple[]"
        }
      ],
      "stateMutability": "view",
      "type": "function"
    },
    {
      "inputs": [],
      "name": "optInToggle",
      "outputs": [],
      "stateMutability": "nonpayable",
      "type": "function"
    },
    {
      "inputs": [],
      "name": "owner",
      "outputs": [
        {
          "internalType": "address",
          "name": "",
          "type": "address"
        }
      ],
      "stateMutability": "view",
      "type": "function"
    },
    {
      "inputs": [],
      "name": "renounceOwnership",
      "outputs": [],
      "stateMutability": "nonpayable",
      "type": "function"
    },
    {
      "inputs": [
        {
          "internalType": "bool",
          "name": "force",
          "type": "bool"
        }
      ],
      "name": "swapAllUsersBalances",
      "outputs": [],
      "stateMutability": "nonpayable",
      "type": "function"
    },
    {
      "inputs": [],
      "name": "swapSingleUserBalance",
      "outputs": [],
      "stateMutability": "nonpayable",
      "type": "function"
    },
    {
      "inputs": [
        {
          "internalType": "address",
          "name": "newOwner",
          "type": "address"
        }
      ],
      "name": "transferOwnership",
      "outputs": [],
      "stateMutability": "nonpayable",
      "type": "function"
    }
  ],
  "bytecode": "0x608060405234801561001057600080fd5b5060006100216100c460201b60201c565b9050806000806101000a81548173ffffffffffffffffffffffffffffffffffffffff021916908373ffffffffffffffffffffffffffffffffffffffff1602179055508073ffffffffffffffffffffffffffffffffffffffff16600073ffffffffffffffffffffffffffffffffffffffff167f8be0079c531659141344cd1fd0a4f28419497f9722a3daafe3b4186f6b6457e060405160405180910390a3506100cc565b600033905090565b61177b806100db6000396000f3fe608060405234801561001057600080fd5b50600436106100a95760003560e01c80637bb14480116100715780637bb14480146100f25780638da5cb5b146100fc578063a62281ed1461011a578063a88bd3fe14610136578063bc911cb114610152578063f2fde38b14610170576100a9565b806325ad91ce146100ae57806332eefcf5146100b85780634848907b146100c2578063715018a6146100cc578063737ec20f146100d6575b600080fd5b6100b661018c565b005b6100c06103da565b005b6100ca61050c565b005b6100d46105cb565b005b6100f060048036038101906100eb919061130d565b610705565b005b6100fa6108e1565b005b610104610ab2565b6040516101119190611510565b60405180910390f35b610134600480360381019061012f919061130d565b610adb565b005b610150600480360381019061014b91906112bb565b610cb7565b005b61015a610d50565b6040516101679190611562565b60405180910390f35b61018a60048036038101906101859190611292565b61104d565b005b600073ffffffffffffffffffffffffffffffffffffffff16600260003373ffffffffffffffffffffffffffffffffffffffff1673ffffffffffffffffffffffffffffffffffffffff16815260200190815260200160002060000160009054906101000a900473ffffffffffffffffffffffffffffffffffffffff1673ffffffffffffffffffffffffffffffffffffffff16141561039f5733600260003373ffffffffffffffffffffffffffffffffffffffff1673ffffffffffffffffffffffffffffffffffffffff16815260200190815260200160002060000160006101000a81548173ffffffffffffffffffffffffffffffffffffffff021916908373ffffffffffffffffffffffffffffffffffffffff1602179055506001600260003373ffffffffffffffffffffffffffffffffffffffff1673ffffffffffffffffffffffffffffffffffffffff16815260200190815260200160002060030160006101000a81548160ff0219169083151502179055506001339080600181540180825580915050600190039060005260206000200160009091909190916101000a81548173ffffffffffffffffffffffffffffffffffffffff021916908373ffffffffffffffffffffffffffffffffffffffff1602179055507f2b865278e72421ded897b30277b72c654fe5b824c08eb97de6fabdeff85d55cc600160405161039291906115b4565b60405180910390a16103d8565b7f2b865278e72421ded897b30277b72c654fe5b824c08eb97de6fabdeff85d55cc60006040516103cf91906115b4565b60405180910390a15b565b600260003373ffffffffffffffffffffffffffffffffffffffff1673ffffffffffffffffffffffffffffffffffffffff16815260200190815260200160002060030160009054906101000a900460ff1615600260003373ffffffffffffffffffffffffffffffffffffffff1673ffffffffffffffffffffffffffffffffffffffff16815260200190815260200160002060030160006101000a81548160ff0219169083151502179055507f7ebb6fb163dd741d0bc3e9634b5c5bef95a5519bc08ca96b0ec823b771b6481f600260003373ffffffffffffffffffffffffffffffffffffffff1673ffffffffffffffffffffffffffffffffffffffff16815260200190815260200160002060030160009054906101000a900460ff1660405161050291906115b4565b60405180910390a1565b7f3e243e6d57641744143b337e8a56c38f7b922c81bfa4b9133d142a335defb673600260003373ffffffffffffffffffffffffffffffffffffffff1673ffffffffffffffffffffffffffffffffffffffff16815260200190815260200160002060020154600260003373ffffffffffffffffffffffffffffffffffffffff1673ffffffffffffffffffffffffffffffffffffffff168152602001908152602001600020600101546040516105c192919061160f565b60405180910390a1565b6105d36111f6565b73ffffffffffffffffffffffffffffffffffffffff166105f1610ab2565b73ffffffffffffffffffffffffffffffffffffffff1614610647576040517f08c379a000000000000000000000000000000000000000000000000000000000815260040161063e906115ef565b60405180910390fd5b600073ffffffffffffffffffffffffffffffffffffffff1660008054906101000a900473ffffffffffffffffffffffffffffffffffffffff1673ffffffffffffffffffffffffffffffffffffffff167f8be0079c531659141344cd1fd0a4f28419497f9722a3daafe3b4186f6b6457e060405160405180910390a360008060006101000a81548173ffffffffffffffffffffffffffffffffffffffff021916908373ffffffffffffffffffffffffffffffffffffffff160217905550565b73a0a5ad2296b38bd3e3eb59aaeaf1589e8d9a29a973ffffffffffffffffffffffffffffffffffffffff166323b872dd3330846040518463ffffffff1660e01b81526004016107569392919061152b565b602060405180830381600087803b15801561077057600080fd5b505af1158015610784573d6000803e3d6000fd5b505050506040513d601f19601f820116820180604052508101906107a891906112e4565b6107b157600080fd5b6107b96111fe565b600260003373ffffffffffffffffffffffffffffffffffffffff1673ffffffffffffffffffffffffffffffffffffffff1681526020019081526020016000206040518060800160405290816000820160009054906101000a900473ffffffffffffffffffffffffffffffffffffffff1673ffffffffffffffffffffffffffffffffffffffff1673ffffffffffffffffffffffffffffffffffffffff16815260200160018201548152602001600282015481526020016003820160009054906101000a900460ff16151515158152505090506000816020015190508281018260200181815250507fe17978ba6ccb1ea930aba3d1d1eb2c586993d49e5a649080982994e327cff0d18183602001516040516108d492919061160f565b60405180910390a1505050565b6060600167ffffffffffffffff811180156108fb57600080fd5b5060405190808252806020026020018201604052801561093557816020015b6109226111fe565b81526020019060019003908161091a5790505b509050600260003373ffffffffffffffffffffffffffffffffffffffff1673ffffffffffffffffffffffffffffffffffffffff1681526020019081526020016000206040518060800160405290816000820160009054906101000a900473ffffffffffffffffffffffffffffffffffffffff1673ffffffffffffffffffffffffffffffffffffffff1673ffffffffffffffffffffffffffffffffffffffff16815260200160018201548152602001600282015481526020016003820160009054906101000a900460ff16151515158152505081600081518110610a1457fe5b6020026020010181905250600360009054906101000a900473ffffffffffffffffffffffffffffffffffffffff1673ffffffffffffffffffffffffffffffffffffffff16637a1debe88260006040518363ffffffff1660e01b8152600401610a7d929190611584565b600060405180830381600087803b158015610a9757600080fd5b505af1158015610aab573d6000803e3d6000fd5b5050505050565b60008060009054906101000a900473ffffffffffffffffffffffffffffffffffffffff16905090565b73016750ac630f711882812f24dba6c95b9d35856d73ffffffffffffffffffffffffffffffffffffffff166323b872dd3330846040518463ffffffff1660e01b8152600401610b2c9392919061152b565b602060405180830381600087803b158015610b4657600080fd5b505af1158015610b5a573d6000803e3d6000fd5b505050506040513d601f19601f82011682018060405250810190610b7e91906112e4565b610b8757600080fd5b610b8f6111fe565b600260003373ffffffffffffffffffffffffffffffffffffffff1673ffffffffffffffffffffffffffffffffffffffff1681526020019081526020016000206040518060800160405290816000820160009054906101000a900473ffffffffffffffffffffffffffffffffffffffff1673ffffffffffffffffffffffffffffffffffffffff1673ffffffffffffffffffffffffffffffffffffffff16815260200160018201548152602001600282015481526020016003820160009054906101000a900460ff16151515158152505090506000816040015190508281018260400181815250507f04768d535faeb3da91161576666e6eeae28e38af119b18462c02a345abc79898818360400151604051610caa92919061160f565b60405180910390a1505050565b600360009054906101000a900473ffffffffffffffffffffffffffffffffffffffff1673ffffffffffffffffffffffffffffffffffffffff16630e5dc2c4610cfd610d50565b836040518363ffffffff1660e01b8152600401610d1b929190611584565b600060405180830381600087803b158015610d3557600080fd5b505af1158015610d49573d6000803e3d6000fd5b5050505050565b60606000805b600180549050811015610e9457610d6b6111fe565b6002600060018481548110610d7c57fe5b9060005260206000200160009054906101000a900473ffffffffffffffffffffffffffffffffffffffff1673ffffffffffffffffffffffffffffffffffffffff1673ffffffffffffffffffffffffffffffffffffffff1681526020019081526020016000206040518060800160405290816000820160009054906101000a900473ffffffffffffffffffffffffffffffffffffffff1673ffffffffffffffffffffffffffffffffffffffff1673ffffffffffffffffffffffffffffffffffffffff16815260200160018201548152602001600282015481526020016003820160009054906101000a900460ff1615151515815250509050806060015115610e865782806001019350505b508080600101915050610d56565b5060608167ffffffffffffffff81118015610eae57600080fd5b50604051908082528060200260200182016040528015610ee857816020015b610ed56111fe565b815260200190600190039081610ecd5790505b5090506000805b60018054905081101561104357610f046111fe565b6002600060018481548110610f1557fe5b9060005260206000200160009054906101000a900473ffffffffffffffffffffffffffffffffffffffff1673ffffffffffffffffffffffffffffffffffffffff1673ffffffffffffffffffffffffffffffffffffffff1681526020019081526020016000206040518060800160405290816000820160009054906101000a900473ffffffffffffffffffffffffffffffffffffffff1673ffffffffffffffffffffffffffffffffffffffff1673ffffffffffffffffffffffffffffffffffffffff16815260200160018201548152602001600282015481526020016003820160009054906101000a900460ff1615151515815250509050806060015115611035578084848060010195508151811061102957fe5b60200260200101819052505b508080600101915050610eef565b5081935050505090565b6110556111f6565b73ffffffffffffffffffffffffffffffffffffffff16611073610ab2565b73ffffffffffffffffffffffffffffffffffffffff16146110c9576040517f08c379a00000000000000000000000000000000000000000000000000000000081526004016110c0906115ef565b60405180910390fd5b600073ffffffffffffffffffffffffffffffffffffffff168173ffffffffffffffffffffffffffffffffffffffff161415611139576040517f08c379a0000000000000000000000000000000000000000000000000000000008152600401611130906115cf565b60405180910390fd5b8073ffffffffffffffffffffffffffffffffffffffff1660008054906101000a900473ffffffffffffffffffffffffffffffffffffffff1673ffffffffffffffffffffffffffffffffffffffff167f8be0079c531659141344cd1fd0a4f28419497f9722a3daafe3b4186f6b6457e060405160405180910390a3806000806101000a81548173ffffffffffffffffffffffffffffffffffffffff021916908373ffffffffffffffffffffffffffffffffffffffff16021790555050565b600033905090565b6040518060800160405280600073ffffffffffffffffffffffffffffffffffffffff16815260200160008152602001600081526020016000151581525090565b60008135905061124d81611700565b92915050565b60008135905061126281611717565b92915050565b60008151905061127781611717565b92915050565b60008135905061128c8161172e565b92915050565b6000602082840312156112a457600080fd5b60006112b28482850161123e565b91505092915050565b6000602082840312156112cd57600080fd5b60006112db84828501611253565b91505092915050565b6000602082840312156112f657600080fd5b600061130484828501611268565b91505092915050565b60006020828403121561131f57600080fd5b600061132d8482850161127d565b91505092915050565b6000611342838361149d565b60808301905092915050565b611357816116ca565b82525050565b61136681611682565b82525050565b61137581611682565b82525050565b600061138682611648565b6113908185611660565b935061139b83611638565b8060005b838110156113cc5781516113b38882611336565b97506113be83611653565b92505060018101905061139f565b5085935050505092915050565b6113e281611694565b82525050565b6113f181611694565b82525050565b6000611404602683611671565b91507f4f776e61626c653a206e6577206f776e657220697320746865207a65726f206160008301527f64647265737300000000000000000000000000000000000000000000000000006020830152604082019050919050565b600061146a602083611671565b91507f4f776e61626c653a2063616c6c6572206973206e6f7420746865206f776e65726000830152602082019050919050565b6080820160008201516114b3600085018261135d565b5060208201516114c660208501826114f2565b5060408201516114d960408501826114f2565b5060608201516114ec60608501826113d9565b50505050565b6114fb816116c0565b82525050565b61150a816116c0565b82525050565b6000602082019050611525600083018461136c565b92915050565b6000606082019050611540600083018661134e565b61154d602083018561136c565b61155a6040830184611501565b949350505050565b6000602082019050818103600083015261157c818461137b565b905092915050565b6000604082019050818103600083015261159e818561137b565b90506115ad60208301846113e8565b9392505050565b60006020820190506115c960008301846113e8565b92915050565b600060208201905081810360008301526115e8816113f7565b9050919050565b600060208201905081810360008301526116088161145d565b9050919050565b60006040820190506116246000830185611501565b6116316020830184611501565b9392505050565b6000819050602082019050919050565b600081519050919050565b6000602082019050919050565b600082825260208201905092915050565b600082825260208201905092915050565b600061168d826116a0565b9050919050565b60008115159050919050565b600073ffffffffffffffffffffffffffffffffffffffff82169050919050565b6000819050919050565b60006116d5826116dc565b9050919050565b60006116e7826116ee565b9050919050565b60006116f9826116a0565b9050919050565b61170981611682565b811461171457600080fd5b50565b61172081611694565b811461172b57600080fd5b50565b611737816116c0565b811461174257600080fd5b5056fea26469706673582212202510493fa9101add078808fce5fa9975997d67d83d3eed1456d568f926224a5164736f6c634300060c0033",
  "linkReferences": {},
  "deployedLinkReferences": {}
}