{
  "_format": "hh-sol-artifact-1",
  "contractName": "SwapAI",
  "sourceName": "contracts/SwapAI.sol",
  "abi": [
    {
      "inputs": [],
      "stateMutability": "nonpayable",
      "type": "constructor"
    },
    {
      "anonymous": false,
      "inputs": [
        {
          "indexed": false,
          "internalType": "bool",
          "name": "createUserStatus",
          "type": "bool"
        }
      ],
      "name": "CreateUser",
      "type": "event"
    },
    {
      "anonymous": false,
      "inputs": [
        {
          "indexed": false,
          "internalType": "uint256",
          "name": "oldUserAmount",
          "type": "uint256"
        },
        {
          "indexed": false,
          "internalType": "uint256",
          "name": "newUserAmount",
          "type": "uint256"
        }
      ],
      "name": "DepositTUSD",
      "type": "event"
    },
    {
      "anonymous": false,
      "inputs": [
        {
          "indexed": false,
          "internalType": "uint256",
          "name": "oldUserAmount",
          "type": "uint256"
        },
        {
          "indexed": false,
          "internalType": "uint256",
          "name": "newUserAmount",
          "type": "uint256"
        }
      ],
      "name": "DepositWBTC",
      "type": "event"
    },
    {
      "anonymous": false,
      "inputs": [
        {
          "indexed": false,
          "internalType": "bool",
          "name": "optInStatus",
          "type": "bool"
        }
      ],
      "name": "OptInToggle",
      "type": "event"
    },
    {
      "anonymous": false,
      "inputs": [
        {
          "indexed": false,
          "internalType": "bool",
          "name": "swapEligibleStatus",
          "type": "bool"
        }
      ],
      "name": "SwapEligibleUsersExist",
      "type": "event"
    },
    {
      "anonymous": false,
      "inputs": [
        {
          "indexed": false,
          "internalType": "uint256",
          "name": "WBTCBalance",
          "type": "uint256"
        },
        {
          "indexed": false,
          "internalType": "uint256",
          "name": "TUSDBalance",
          "type": "uint256"
        }
      ],
      "name": "UserBalance",
      "type": "event"
    },
    {
      "inputs": [],
      "name": "createUser",
      "outputs": [],
      "stateMutability": "nonpayable",
      "type": "function"
    },
    {
      "inputs": [],
      "name": "depositTUSD",
      "outputs": [],
      "stateMutability": "payable",
      "type": "function"
    },
    {
      "inputs": [],
      "name": "depositWBTC",
      "outputs": [],
      "stateMutability": "payable",
      "type": "function"
    },
    {
      "inputs": [],
      "name": "fetchUserBalance",
      "outputs": [],
      "stateMutability": "nonpayable",
      "type": "function"
    },
    {
      "inputs": [],
      "name": "getSwapEligibleUsers",
      "outputs": [
        {
          "internalType": "contract SwapUser[]",
          "name": "",
          "type": "address[]"
        }
      ],
      "stateMutability": "view",
      "type": "function"
    },
    {
      "inputs": [],
      "name": "optInToggle",
      "outputs": [],
      "stateMutability": "nonpayable",
      "type": "function"
    },
    {
      "inputs": [
        {
          "internalType": "bool",
          "name": "force",
          "type": "bool"
        }
      ],
      "name": "swapAllUsersBalances",
      "outputs": [],
      "stateMutability": "nonpayable",
      "type": "function"
    },
    {
      "inputs": [],
      "name": "swapSingleUserBalance",
      "outputs": [],
      "stateMutability": "nonpayable",
      "type": "function"
    }
  ],
  "bytecode": "0x608060405234801561001057600080fd5b50611583806100206000396000f3fe60806040526004361061007b5760003560e01c80635fad97b21161004e5780635fad97b2146100cf5780637bb14480146100d9578063a88bd3fe146100f0578063bc911cb11461012d5761007b565b806325ad91ce1461008057806332eefcf5146100975780633c448d1b146100ae5780634848907b146100b8575b600080fd5b34801561008c57600080fd5b50610095610199565b005b3480156100a357600080fd5b506100ac61045e565b005b6100b6610637565b005b3480156100c457600080fd5b506100cd610850565b005b6100d7610a4f565b005b3480156100e557600080fd5b506100ee610c68565b005b3480156100fc57600080fd5b5061012b6004803603602081101561011357600080fd5b81019080803515159060200190929190505050610e37565b005b34801561013957600080fd5b50610142610f19565b6040518080602001828103825283818151815260200191508051906020019060200280838360005b8381101561018557808201518184015260208101905061016a565b505050509050019250505060405180910390f35b600073ffffffffffffffffffffffffffffffffffffffff16600160003373ffffffffffffffffffffffffffffffffffffffff1673ffffffffffffffffffffffffffffffffffffffff16815260200190815260200160002060009054906101000a900473ffffffffffffffffffffffffffffffffffffffff1673ffffffffffffffffffffffffffffffffffffffff1663ebc3eee86040518163ffffffff1660e01b815260040160206040518083038186803b15801561025657600080fd5b505afa15801561026a573d6000803e3d6000fd5b505050506040513d602081101561028057600080fd5b810190808051906020019092919050505073ffffffffffffffffffffffffffffffffffffffff161415610421573360016040516102bc90611246565b808373ffffffffffffffffffffffffffffffffffffffff168152602001821515815260200192505050604051809103906000f080158015610301573d6000803e3d6000fd5b50600160003373ffffffffffffffffffffffffffffffffffffffff1673ffffffffffffffffffffffffffffffffffffffff16815260200190815260200160002060006101000a81548173ffffffffffffffffffffffffffffffffffffffff021916908373ffffffffffffffffffffffffffffffffffffffff1602179055506000339080600181540180825580915050600190039060005260206000200160009091909190916101000a81548173ffffffffffffffffffffffffffffffffffffffff021916908373ffffffffffffffffffffffffffffffffffffffff1602179055507f2b865278e72421ded897b30277b72c654fe5b824c08eb97de6fabdeff85d55cc600160405180821515815260200191505060405180910390a161045c565b7f2b865278e72421ded897b30277b72c654fe5b824c08eb97de6fabdeff85d55cc600060405180821515815260200191505060405180910390a15b565b600160003373ffffffffffffffffffffffffffffffffffffffff1673ffffffffffffffffffffffffffffffffffffffff16815260200190815260200160002060009054906101000a900473ffffffffffffffffffffffffffffffffffffffff1673ffffffffffffffffffffffffffffffffffffffff16634dbdba566040518163ffffffff1660e01b8152600401600060405180830381600087803b15801561050557600080fd5b505af1158015610519573d6000803e3d6000fd5b505050507f7ebb6fb163dd741d0bc3e9634b5c5bef95a5519bc08ca96b0ec823b771b6481f600160003373ffffffffffffffffffffffffffffffffffffffff1673ffffffffffffffffffffffffffffffffffffffff16815260200190815260200160002060009054906101000a900473ffffffffffffffffffffffffffffffffffffffff1673ffffffffffffffffffffffffffffffffffffffff1663045ff2266040518163ffffffff1660e01b815260040160206040518083038186803b1580156105e357600080fd5b505afa1580156105f7573d6000803e3d6000fd5b505050506040513d602081101561060d57600080fd5b810190808051906020019092919050505060405180821515815260200191505060405180910390a1565b6000600160003373ffffffffffffffffffffffffffffffffffffffff1673ffffffffffffffffffffffffffffffffffffffff16815260200190815260200160002060009054906101000a900473ffffffffffffffffffffffffffffffffffffffff16905060008173ffffffffffffffffffffffffffffffffffffffff16638faa62066040518163ffffffff1660e01b815260040160206040518083038186803b1580156106e357600080fd5b505afa1580156106f7573d6000803e3d6000fd5b505050506040513d602081101561070d57600080fd5b810190808051906020019092919050505090508173ffffffffffffffffffffffffffffffffffffffff1663e49190bd3483016040518263ffffffff1660e01b815260040180828152602001915050600060405180830381600087803b15801561077557600080fd5b505af1158015610789573d6000803e3d6000fd5b505050507fe17978ba6ccb1ea930aba3d1d1eb2c586993d49e5a649080982994e327cff0d1818373ffffffffffffffffffffffffffffffffffffffff16638faa62066040518163ffffffff1660e01b815260040160206040518083038186803b1580156107f557600080fd5b505afa158015610809573d6000803e3d6000fd5b505050506040513d602081101561081f57600080fd5b8101908080519060200190929190505050604051808381526020018281526020019250505060405180910390a15050565b7f3e243e6d57641744143b337e8a56c38f7b922c81bfa4b9133d142a335defb673600160003373ffffffffffffffffffffffffffffffffffffffff1673ffffffffffffffffffffffffffffffffffffffff16815260200190815260200160002060009054906101000a900473ffffffffffffffffffffffffffffffffffffffff1673ffffffffffffffffffffffffffffffffffffffff166324bae0256040518163ffffffff1660e01b815260040160206040518083038186803b15801561091657600080fd5b505afa15801561092a573d6000803e3d6000fd5b505050506040513d602081101561094057600080fd5b8101908080519060200190929190505050600160003373ffffffffffffffffffffffffffffffffffffffff1673ffffffffffffffffffffffffffffffffffffffff16815260200190815260200160002060009054906101000a900473ffffffffffffffffffffffffffffffffffffffff1673ffffffffffffffffffffffffffffffffffffffff16638faa62066040518163ffffffff1660e01b815260040160206040518083038186803b1580156109f657600080fd5b505afa158015610a0a573d6000803e3d6000fd5b505050506040513d6020811015610a2057600080fd5b8101908080519060200190929190505050604051808381526020018281526020019250505060405180910390a1565b6000600160003373ffffffffffffffffffffffffffffffffffffffff1673ffffffffffffffffffffffffffffffffffffffff16815260200190815260200160002060009054906101000a900473ffffffffffffffffffffffffffffffffffffffff16905060008173ffffffffffffffffffffffffffffffffffffffff166324bae0256040518163ffffffff1660e01b815260040160206040518083038186803b158015610afb57600080fd5b505afa158015610b0f573d6000803e3d6000fd5b505050506040513d6020811015610b2557600080fd5b810190808051906020019092919050505090508173ffffffffffffffffffffffffffffffffffffffff1663d16013733483016040518263ffffffff1660e01b815260040180828152602001915050600060405180830381600087803b158015610b8d57600080fd5b505af1158015610ba1573d6000803e3d6000fd5b505050507f04768d535faeb3da91161576666e6eeae28e38af119b18462c02a345abc79898818373ffffffffffffffffffffffffffffffffffffffff166324bae0256040518163ffffffff1660e01b815260040160206040518083038186803b158015610c0d57600080fd5b505afa158015610c21573d6000803e3d6000fd5b505050506040513d6020811015610c3757600080fd5b8101908080519060200190929190505050604051808381526020018281526020019250505060405180910390a15050565b6060600167ffffffffffffffff81118015610c8257600080fd5b50604051908082528060200260200182016040528015610cb15781602001602082028036833780820191505090505b509050600160003373ffffffffffffffffffffffffffffffffffffffff1673ffffffffffffffffffffffffffffffffffffffff16815260200190815260200160002060009054906101000a900473ffffffffffffffffffffffffffffffffffffffff1681600081518110610d2157fe5b602002602001019073ffffffffffffffffffffffffffffffffffffffff16908173ffffffffffffffffffffffffffffffffffffffff1681525050600260009054906101000a900473ffffffffffffffffffffffffffffffffffffffff1673ffffffffffffffffffffffffffffffffffffffff16638c7989a48260006040518363ffffffff1660e01b815260040180806020018315158152602001828103825284818151815260200191508051906020019060200280838360005b83811015610df6578082015181840152602081019050610ddb565b505050509050019350505050600060405180830381600087803b158015610e1c57600080fd5b505af1158015610e30573d6000803e3d6000fd5b5050505050565b600260009054906101000a900473ffffffffffffffffffffffffffffffffffffffff1673ffffffffffffffffffffffffffffffffffffffff1663e1c67cfd610e7d610f19565b836040518363ffffffff1660e01b815260040180806020018315158152602001828103825284818151815260200191508051906020019060200280838360005b83811015610ed8578082015181840152602081019050610ebd565b505050509050019350505050600060405180830381600087803b158015610efe57600080fd5b505af1158015610f12573d6000803e3d6000fd5b5050505050565b60606000805b60008054905081101561106357600060016000808481548110610f3e57fe5b9060005260206000200160009054906101000a900473ffffffffffffffffffffffffffffffffffffffff1673ffffffffffffffffffffffffffffffffffffffff1673ffffffffffffffffffffffffffffffffffffffff16815260200190815260200160002060009054906101000a900473ffffffffffffffffffffffffffffffffffffffff1690508073ffffffffffffffffffffffffffffffffffffffff1663045ff2266040518163ffffffff1660e01b815260040160206040518083038186803b15801561100c57600080fd5b505afa158015611020573d6000803e3d6000fd5b505050506040513d602081101561103657600080fd5b8101908080519060200190929190505050156110555782806001019350505b508080600101915050610f1f565b5060608167ffffffffffffffff8111801561107d57600080fd5b506040519080825280602002602001820160405280156110ac5781602001602082028036833780820191505090505b5090506000805b60008054905081101561123c576000600160008084815481106110d257fe5b9060005260206000200160009054906101000a900473ffffffffffffffffffffffffffffffffffffffff1673ffffffffffffffffffffffffffffffffffffffff1673ffffffffffffffffffffffffffffffffffffffff16815260200190815260200160002060009054906101000a900473ffffffffffffffffffffffffffffffffffffffff1690508073ffffffffffffffffffffffffffffffffffffffff1663045ff2266040518163ffffffff1660e01b815260040160206040518083038186803b1580156111a057600080fd5b505afa1580156111b4573d6000803e3d6000fd5b505050506040513d60208110156111ca57600080fd5b81019080805190602001909291905050501561122e57808484806001019550815181106111f357fe5b602002602001019073ffffffffffffffffffffffffffffffffffffffff16908173ffffffffffffffffffffffffffffffffffffffff16815250505b5080806001019150506110b3565b5081935050505090565b6102fa806112548339019056fe608060405234801561001057600080fd5b506040516102fa3803806102fa8339818101604052604081101561003357600080fd5b810190808051906020019092919080519060200190929190505050816000806101000a81548173ffffffffffffffffffffffffffffffffffffffff021916908373ffffffffffffffffffffffffffffffffffffffff16021790555080600060146101000a81548160ff0219169083151502179055505050610241806100b96000396000f3fe608060405234801561001057600080fd5b506004361061007d5760003560e01c80638faa62061161005b5780638faa6206146100ca578063d1601373146100e8578063e49190bd14610116578063ebc3eee8146101445761007d565b8063045ff2261461008257806324bae025146100a25780634dbdba56146100c0575b600080fd5b61008a610178565b60405180821515815260200191505060405180910390f35b6100aa61018e565b6040518082815260200191505060405180910390f35b6100c8610198565b005b6100d26101c4565b6040518082815260200191505060405180910390f35b610114600480360360208110156100fe57600080fd5b81019080803590602001909291905050506101ce565b005b6101426004803603602081101561012c57600080fd5b81019080803590602001909291905050506101d8565b005b61014c6101e2565b604051808273ffffffffffffffffffffffffffffffffffffffff16815260200191505060405180910390f35b60008060149054906101000a900460ff16905090565b6000600254905090565b600060149054906101000a900460ff1615600060146101000a81548160ff021916908315150217905550565b6000600154905090565b8060028190555050565b8060018190555050565b60008060009054906101000a900473ffffffffffffffffffffffffffffffffffffffff1690509056fea2646970667358221220e8079db85e281d2163a24a722de3034ecc098cd211dd8fbab2b3d6d14f58a3c964736f6c634300060c0033a26469706673582212202c54c6a1d489f627b011f1a805867a9e03ffa98944d1a8ee283d36e540a91d9364736f6c634300060c0033",
  "linkReferences": {},
  "deployedLinkReferences": {}
}