{
  "_format": "hh-sol-artifact-1",
  "contractName": "SwapAI",
  "sourceName": "contracts/SwapAI.sol",
  "abi": [
    {
      "inputs": [
        {
          "internalType": "address",
          "name": "_tusdTokenAddr",
          "type": "address"
        },
        {
          "internalType": "address",
          "name": "_wbtcTokenAddr",
          "type": "address"
        },
        {
          "internalType": "address",
          "name": "_oracleMasterAddr",
          "type": "address"
        },
        {
          "internalType": "address",
          "name": "_tokenSwapperAddr",
          "type": "address"
        }
      ],
      "stateMutability": "nonpayable",
      "type": "constructor"
    },
    {
      "anonymous": false,
      "inputs": [
        {
          "indexed": false,
          "internalType": "uint256",
          "name": "btcPriceCurrent",
          "type": "uint256"
        },
        {
          "indexed": false,
          "internalType": "uint256",
          "name": "btcPricePrediction",
          "type": "uint256"
        },
        {
          "indexed": false,
          "internalType": "uint256",
          "name": "tusdAssets",
          "type": "uint256"
        },
        {
          "indexed": false,
          "internalType": "uint256",
          "name": "tusdReserves",
          "type": "uint256"
        },
        {
          "indexed": false,
          "internalType": "int256",
          "name": "btcSentiment",
          "type": "int256"
        },
        {
          "indexed": false,
          "internalType": "bool",
          "name": "isNegativeFuture",
          "type": "bool"
        },
        {
          "indexed": false,
          "internalType": "bool",
          "name": "isPositiveFuture",
          "type": "bool"
        }
      ],
      "name": "AutoSwap",
      "type": "event"
    },
    {
      "anonymous": false,
      "inputs": [
        {
          "indexed": false,
          "internalType": "uint256",
          "name": "oldAmount",
          "type": "uint256"
        },
        {
          "indexed": false,
          "internalType": "uint256",
          "name": "newAmount",
          "type": "uint256"
        }
      ],
      "name": "DepositTUSD",
      "type": "event"
    },
    {
      "anonymous": false,
      "inputs": [
        {
          "indexed": false,
          "internalType": "uint256",
          "name": "oldAmount",
          "type": "uint256"
        },
        {
          "indexed": false,
          "internalType": "uint256",
          "name": "newAmount",
          "type": "uint256"
        }
      ],
      "name": "DepositWBTC",
      "type": "event"
    },
    {
      "anonymous": false,
      "inputs": [
        {
          "indexed": false,
          "internalType": "uint256",
          "name": "oldWbtcBalance",
          "type": "uint256"
        },
        {
          "indexed": false,
          "internalType": "uint256",
          "name": "newWbtcBalance",
          "type": "uint256"
        },
        {
          "indexed": false,
          "internalType": "uint256",
          "name": "oldTusdBalance",
          "type": "uint256"
        },
        {
          "indexed": false,
          "internalType": "uint256",
          "name": "newTusdBalance",
          "type": "uint256"
        }
      ],
      "name": "ManualSwap",
      "type": "event"
    },
    {
      "anonymous": false,
      "inputs": [
        {
          "indexed": false,
          "internalType": "bool",
          "name": "optInStatus",
          "type": "bool"
        }
      ],
      "name": "OptInStatus",
      "type": "event"
    },
    {
      "anonymous": false,
      "inputs": [
        {
          "indexed": false,
          "internalType": "uint256",
          "name": "btcPriceCurrent",
          "type": "uint256"
        },
        {
          "indexed": false,
          "internalType": "uint256",
          "name": "btcPricePrediction",
          "type": "uint256"
        },
        {
          "indexed": false,
          "internalType": "uint256",
          "name": "tusdAssets",
          "type": "uint256"
        },
        {
          "indexed": false,
          "internalType": "uint256",
          "name": "tusdReserves",
          "type": "uint256"
        },
        {
          "indexed": false,
          "internalType": "int256",
          "name": "btcSentiment",
          "type": "int256"
        },
        {
          "indexed": false,
          "internalType": "bool",
          "name": "isNegativeFuture",
          "type": "bool"
        },
        {
          "indexed": false,
          "internalType": "bool",
          "name": "isPositiveFuture",
          "type": "bool"
        }
      ],
      "name": "PredictionResults",
      "type": "event"
    },
    {
      "anonymous": false,
      "inputs": [
        {
          "indexed": false,
          "internalType": "bool",
          "name": "success",
          "type": "bool"
        },
        {
          "indexed": false,
          "internalType": "bool",
          "name": "isNewUser",
          "type": "bool"
        }
      ],
      "name": "RegisterUser",
      "type": "event"
    },
    {
      "anonymous": false,
      "inputs": [
        {
          "indexed": false,
          "internalType": "uint256",
          "name": "tusdBalance",
          "type": "uint256"
        },
        {
          "indexed": false,
          "internalType": "uint256",
          "name": "wbtcBalance",
          "type": "uint256"
        }
      ],
      "name": "UserBalance",
      "type": "event"
    },
    {
      "anonymous": false,
      "inputs": [
        {
          "indexed": false,
          "internalType": "bool",
          "name": "userExists",
          "type": "bool"
        }
      ],
      "name": "UserExists",
      "type": "event"
    },
    {
      "inputs": [
        {
          "components": [
            {
              "internalType": "uint256",
              "name": "btcPriceCurrent",
              "type": "uint256"
            },
            {
              "internalType": "uint256",
              "name": "btcPricePrediction",
              "type": "uint256"
            },
            {
              "internalType": "uint256",
              "name": "tusdAssetsAmt",
              "type": "uint256"
            },
            {
              "internalType": "uint256",
              "name": "tusdReservesAmt",
              "type": "uint256"
            },
            {
              "internalType": "int256",
              "name": "btcSentiment",
              "type": "int256"
            }
          ],
          "internalType": "struct PredictionResponse",
          "name": "res",
          "type": "tuple"
        }
      ],
      "name": "_analyzeResults",
      "outputs": [
        {
          "internalType": "bool",
          "name": "",
          "type": "bool"
        },
        {
          "internalType": "bool",
          "name": "",
          "type": "bool"
        }
      ],
      "stateMutability": "pure",
      "type": "function"
    },
    {
      "inputs": [
        {
          "components": [
            {
              "internalType": "uint256",
              "name": "btcPriceCurrent",
              "type": "uint256"
            },
            {
              "internalType": "uint256",
              "name": "btcPricePrediction",
              "type": "uint256"
            },
            {
              "internalType": "uint256",
              "name": "tusdAssetsAmt",
              "type": "uint256"
            },
            {
              "internalType": "uint256",
              "name": "tusdReservesAmt",
              "type": "uint256"
            },
            {
              "internalType": "int256",
              "name": "btcSentiment",
              "type": "int256"
            }
          ],
          "internalType": "struct PredictionResponse",
          "name": "res",
          "type": "tuple"
        }
      ],
      "name": "_processAnalysisAuto",
      "outputs": [],
      "stateMutability": "nonpayable",
      "type": "function"
    },
    {
      "inputs": [
        {
          "components": [
            {
              "internalType": "uint256",
              "name": "btcPriceCurrent",
              "type": "uint256"
            },
            {
              "internalType": "uint256",
              "name": "btcPricePrediction",
              "type": "uint256"
            },
            {
              "internalType": "uint256",
              "name": "tusdAssetsAmt",
              "type": "uint256"
            },
            {
              "internalType": "uint256",
              "name": "tusdReservesAmt",
              "type": "uint256"
            },
            {
              "internalType": "int256",
              "name": "btcSentiment",
              "type": "int256"
            }
          ],
          "internalType": "struct PredictionResponse",
          "name": "res",
          "type": "tuple"
        }
      ],
      "name": "_processPredictionResults",
      "outputs": [],
      "stateMutability": "nonpayable",
      "type": "function"
    },
    {
      "inputs": [
        {
          "internalType": "uint256",
          "name": "depositAmount",
          "type": "uint256"
        }
      ],
      "name": "depositTUSD",
      "outputs": [],
      "stateMutability": "nonpayable",
      "type": "function"
    },
    {
      "inputs": [
        {
          "internalType": "uint256",
          "name": "depositAmount",
          "type": "uint256"
        }
      ],
      "name": "depositWBTC",
      "outputs": [],
      "stateMutability": "nonpayable",
      "type": "function"
    },
    {
      "inputs": [],
      "name": "fetchOptInStatus",
      "outputs": [],
      "stateMutability": "nonpayable",
      "type": "function"
    },
    {
      "inputs": [],
      "name": "fetchPredictionForecast",
      "outputs": [],
      "stateMutability": "nonpayable",
      "type": "function"
    },
    {
      "inputs": [],
      "name": "fetchUserBalance",
      "outputs": [],
      "stateMutability": "nonpayable",
      "type": "function"
    },
    {
      "inputs": [],
      "name": "manualSwapUserToTUSD",
      "outputs": [],
      "stateMutability": "nonpayable",
      "type": "function"
    },
    {
      "inputs": [],
      "name": "manualSwapUserToWBTC",
      "outputs": [],
      "stateMutability": "nonpayable",
      "type": "function"
    },
    {
      "inputs": [],
      "name": "registerUser",
      "outputs": [],
      "stateMutability": "nonpayable",
      "type": "function"
    },
    {
      "inputs": [
        {
          "internalType": "bool",
          "name": "newOptInStatus",
          "type": "bool"
        }
      ],
      "name": "setOptInStatus",
      "outputs": [],
      "stateMutability": "nonpayable",
      "type": "function"
    },
    {
      "inputs": [],
      "name": "smartSwapAllBalances",
      "outputs": [],
      "stateMutability": "nonpayable",
      "type": "function"
    },
    {
      "inputs": [],
      "name": "userExists",
      "outputs": [],
      "stateMutability": "nonpayable",
      "type": "function"
    }
  ],
  "bytecode": "0x6080604052348015620000575762461bcd60e51b6000908152602060045260226024527f45746865722073656e7420746f206e6f6e2d70617961626c652066756e63746960449081526137b760f11b60645290608490fd5b506040516200165e3803806200165e8339810160408190526200007a91620000ec565b600480546001600160a01b039586166001600160a01b03199182161790915560058054948616948216949094179093556002805492851692841692909217909155600380549190931691161790556200018d565b80516001600160a01b0381168114620000e657600080fd5b92915050565b60008060008060808587031215620001435762461bcd60e51b8452602060045260226024527f414249206465636f64696e673a207475706c65206461746120746f6f2073686f604452611c9d60f21b606452608484fd5b6200014f8686620000ce565b9350620001608660208701620000ce565b9250620001718660408701620000ce565b9150620001828660608701620000ce565b905092959194509250565b6114c1806200019d6000396000f3fe60806040523480156100715762461bcd60e51b6000908152602060045260226024527f45746865722073656e7420746f206e6f6e2d70617961626c652066756e63746960449081527f6f6e00000000000000000000000000000000000000000000000000000000000060645290608490fd5b506004361061014b5760003560e01c8063737ec20f116100ed578063aaf71e42116100c7578063aaf71e4214610251578063ba5bb4a514610264578063c629e1761461026c578063eae6d4da146102745761014b565b8063737ec20f146102185780639ef3e4341461022b578063a62281ed1461023e5761014b565b80634c9011f3116101295780634c9011f3146101cb5780634d3820eb146101de57806354c9f089146101e657806358c23455146101ee5761014b565b80631c535cbb146101b15780632f07e74b146101bb5780634848907b146101c3575b62461bcd60e51b6000908152602060045260356024527f436f6e747261637420646f6573206e6f7420686176652066616c6c6261636b2060449081527f6e6f7220726563656976652066756e6374696f6e73000000000000000000000060645290608490fd5b6101b961027c565b005b6101b961034b565b6101b96103c1565b6101b96101d936600461105e565b610416565b6101b9610501565b6101b96105c7565b6102016101fc36600461105e565b61060f565b60405161020f929190611265565b60405180910390f35b6101b9610226366004611189565b61066d565b6101b961023936600461105e565b61098b565b6101b961024c366004611189565b6109e8565b6101b961025f366004610f9d565b610cfa565b6101b9610d5a565b6101b9610d81565b6101b9610dd3565b60025460405163791db36160e01b81526001600160a01b039091169063791db361906102ce9030907f9ef3e4340000000000000000000000000000000000000000000000000000000090600401611206565b600060405180830381600087803b1580156103315762461bcd60e51b6000908152602060045260256024527f54617267657420636f6e747261637420646f6573206e6f7420636f6e7461696e60449081526420636f646560d81b60645290608490fd5b505af1158015610345573d6000803e3d6000fd5b50505050565b33600090815260016020819052604090912060028101549181015490919061037283610e1a565b600283015460018401546040517f42844fa91ceb8db5f17c7b856168e8b763fb7b343e4fef09621a05a06ce91ae1906103b2908690859087908690611404565b60405180910390a15050505050565b336000908152600160208190526040918290209081015460029091015491517f3e243e6d57641744143b337e8a56c38f7b922c81bfa4b9133d142a335defb6739261040c92916113f6565b60405180910390a1565b6000806104228361060f565b909250905060005b6000548110156104a457600080828154811061044257fe5b60009182526020808320909101546001600160a01b03168083526001909152604090912060038101549192509060ff161561049a57831561048b5761048681610f20565b61049a565b841561049a5761049a81610e1a565b505060010161042a565b507ff6ed02b3b7862a9cf5580b5e1a58bda35bff742f8b986e31b22587d4f3737a528360000151846020015185604001518660600151876080015187876040516104f4979695949392919061141f565b60405180910390a1505050565b336000908152600160205260408120805490919060ff166105855750805460ff1916600190811782556000805480830182559080527f290decd9548b62a8d60345a988386fc84ba6bc95484008f6362f93160ef3e5630180547fffffffffffffffffffffffff00000000000000000000000000000000000000001633179055610589565b5060005b7f594b13a75635d7a1d0d9616388087b6c253fa290482b75bfbea722d7c3d7f0416001826040516105bb929190611265565b60405180910390a15050565b33600090815260016020526040908190206003015490517fd0f100f24f7c28024609f25a3abcc5be56f2f402721b0d86f410a0918fb7a7609161040c9160ff9091169061125a565b805160208201516080830151600092839281900391601491829004906113871913818503841085828061063f5750815b60808a015190915061138812848711600082801561065a5750815b939a509298505050505050505050915091565b6005546040516323b872dd60e01b81526001600160a01b03909116906323b872dd906106a1903390309086906004016111e2565b602060405180830381600087803b1580156107045762461bcd60e51b6000908152602060045260256024527f54617267657420636f6e747261637420646f6573206e6f7420636f6e7461696e60449081526420636f646560d81b60645290608490fd5b505af1158015610718573d6000803e3d6000fd5b505050506040513d601f19601f8201168201806040525081019061073c9190611001565b6107615760405162461bcd60e51b815260040161075890611353565b60405180910390fd5b60055460405163095ea7b360e01b81526001600160a01b039091169063095ea7b3906107939030908590600401611241565b602060405180830381600087803b1580156107f65762461bcd60e51b6000908152602060045260256024527f54617267657420636f6e747261637420646f6573206e6f7420636f6e7461696e60449081526420636f646560d81b60645290608490fd5b505af115801561080a573d6000803e3d6000fd5b505050506040513d601f19601f8201168201806040525081019061082e9190611001565b61084a5760405162461bcd60e51b81526004016107589061131c565b6005546003546040516323b872dd60e01b81526001600160a01b03928316926323b872dd926108839230929091169086906004016111e2565b602060405180830381600087803b1580156108e65762461bcd60e51b6000908152602060045260256024527f54617267657420636f6e747261637420646f6573206e6f7420636f6e7461696e60449081526420636f646560d81b60645290608490fd5b505af11580156108fa573d6000803e3d6000fd5b505050506040513d601f19601f8201168201806040525081019061091e9190611001565b61093a5760405162461bcd60e51b81526004016107589061138a565b33600090815260016020526040908190206002810180548481019182905592519192917fe17978ba6ccb1ea930aba3d1d1eb2c586993d49e5a649080982994e327cff0d1916104f4918491906113f6565b6000806109978361060f565b84516020860151604080880151606089015160808a015192519698509496507ff6ed02b3b7862a9cf5580b5e1a58bda35bff742f8b986e31b22587d4f3737a52956104f4959192908990899061141f565b600480546040516323b872dd60e01b81526001600160a01b03909116916323b872dd91610a1b91339130918791016111e2565b602060405180830381600087803b158015610a7e5762461bcd60e51b6000908152602060045260256024527f54617267657420636f6e747261637420646f6573206e6f7420636f6e7461696e60449081526420636f646560d81b60645290608490fd5b505af1158015610a92573d6000803e3d6000fd5b505050506040513d601f19601f82011682018060405250810190610ab69190611001565b610ad25760405162461bcd60e51b8152600401610758906112ae565b6004805460405163095ea7b360e01b81526001600160a01b039091169163095ea7b391610b03913091869101611241565b602060405180830381600087803b158015610b665762461bcd60e51b6000908152602060045260256024527f54617267657420636f6e747261637420646f6573206e6f7420636f6e7461696e60449081526420636f646560d81b60645290608490fd5b505af1158015610b7a573d6000803e3d6000fd5b505050506040513d601f19601f82011682018060405250810190610b9e9190611001565b610bba5760405162461bcd60e51b815260040161075890611277565b600480546003546040516323b872dd60e01b81526001600160a01b03928316936323b872dd93610bf19330939116918791016111e2565b602060405180830381600087803b158015610c545762461bcd60e51b6000908152602060045260256024527f54617267657420636f6e747261637420646f6573206e6f7420636f6e7461696e60449081526420636f646560d81b60645290608490fd5b505af1158015610c68573d6000803e3d6000fd5b505050506040513d601f19601f82011682018060405250810190610c8c9190611001565b610ca85760405162461bcd60e51b8152600401610758906112e5565b3360009081526001602081905260409182902090810180548481019182905592519192917f04768d535faeb3da91161576666e6eeae28e38af119b18462c02a345abc79898916104f4918491906113f6565b3360009081526001602052604090819020600301805460ff1916831515179081905590517fd0f100f24f7c28024609f25a3abcc5be56f2f402721b0d86f410a0918fb7a76091610d4f9160ff9091169061125a565b60405180910390a150565b33600090815260016020819052604090912060028101549181015490919061037283610f20565b60025460405163791db36160e01b81526001600160a01b039091169063791db361906102ce9030907f4c9011f30000000000000000000000000000000000000000000000000000000090600401611206565b336000908152600160205260409081902054905160ff909116907f772becca9f9d9f49ba2cc28a82d9ac30b2ad1ca5a60f1b2a461f937ec0e315cd90610d4f90839061125a565b610e22610f71565b6003546040517fd11455650000000000000000000000000000000000000000000000000000000081526001600160a01b039091169063d114556590610e6b9085906004016113c1565b608060405180830381600087803b158015610ece5762461bcd60e51b6000908152602060045260256024527f54617267657420636f6e747261637420646f6573206e6f7420636f6e7461696e60449081526420636f646560d81b60645290608490fd5b505af1158015610ee2573d6000803e3d6000fd5b505050506040513d601f19601f82011682018060405250810190610f0691906110f0565b604081015160028401556020015160019092019190915550565b610f28610f71565b6003546040517f0514226b0000000000000000000000000000000000000000000000000000000081526001600160a01b0390911690630514226b90610e6b9085906004016113c1565b604051806080016040528060001515815260200160008152602001600081526020016000151581525090565b600060208284031215610fef5762461bcd60e51b8152602060045260226024527f414249206465636f64696e673a207475706c65206461746120746f6f2073686f604452611c9d60f21b606452608481fd5b8135610ffa8161147a565b9392505050565b6000602082840312156110535762461bcd60e51b8152602060045260226024527f414249206465636f64696e673a207475706c65206461746120746f6f2073686f604452611c9d60f21b606452608481fd5b8151610ffa8161147a565b600060a082840312156110b05762461bcd60e51b8152602060045260226024527f414249206465636f64696e673a207475706c65206461746120746f6f2073686f604452611c9d60f21b606452608481fd5b6110ba60a0611453565b82358152602083013560208201526040830135604082015260608301356060820152608083013560808201528091505092915050565b6000608082840312156111425762461bcd60e51b8152602060045260226024527f414249206465636f64696e673a207475706c65206461746120746f6f2073686f604452611c9d60f21b606452608481fd5b61114c6080611453565b82516111578161147a565b808252506020830151602082015260408301516040820152606083015161117d8161147a565b60608201529392505050565b6000602082840312156111db5762461bcd60e51b8152602060045260226024527f414249206465636f64696e673a207475706c65206461746120746f6f2073686f604452611c9d60f21b606452608481fd5b5035919050565b6001600160a01b039384168152919092166020820152604081019190915260600190565b6001600160a01b039290921682527fffffffff0000000000000000000000000000000000000000000000000000000016602082015260400190565b6001600160a01b03929092168252602082015260400190565b901515815260200190565b91151582521515602082015260400190565b6020808252601b908201527f415050524f56455f545553445f544f4b454e535741505f4641494c0000000000604082015260600190565b6020808252601b908201527f4445504f5349545f545553445f544f5f5357415041495f4641494c0000000000604082015260600190565b6020808252601c908201527f5452414e534645525f545553445f544f4b454e535741505f4641494c00000000604082015260600190565b6020808252601b908201527f415050524f56455f574254435f544f4b454e535741505f4641494c0000000000604082015260600190565b6020808252601b908201527f4445504f5349545f574254435f544f5f5357415041495f4641494c0000000000604082015260600190565b6020808252601c908201527f5452414e534645525f574254435f544f4b454e535741505f4641494c00000000604082015260600190565b815460ff9081161515825260018301546020830152600283015460408301526003909201549091161515606082015260800190565b918252602082015260400190565b93845260208401929092526040830152606082015260800190565b9687526020870195909552604086019390935260608501919091526080840152151560a0830152151560c082015260e00190565b60405181810167ffffffffffffffff8111828210171561147257600080fd5b604052919050565b801515811461148857600080fd5b5056fea2646970667358221220854712ae92ff994d3af3e68c59afe302c4344190fd35ff7431013c117f2aaa3564736f6c634300060c0033",
  "linkReferences": {},
  "deployedLinkReferences": {}
}