{
  "_format": "hh-sol-artifact-1",
  "contractName": "SwapAI",
  "sourceName": "contracts/SwapAI.sol",
  "abi": [
    {
      "inputs": [
        {
          "internalType": "address",
          "name": "_tusdTokenAddr",
          "type": "address"
        },
        {
          "internalType": "address",
          "name": "_wbtcTokenAddr",
          "type": "address"
        },
        {
          "internalType": "address",
          "name": "_oracleMasterAddr",
          "type": "address"
        },
        {
          "internalType": "address",
          "name": "_tokenSwapperAddr",
          "type": "address"
        }
      ],
      "stateMutability": "nonpayable",
      "type": "constructor"
    },
    {
      "anonymous": false,
      "inputs": [
        {
          "indexed": false,
          "internalType": "int256",
          "name": "btcSentiment",
          "type": "int256"
        },
        {
          "indexed": false,
          "internalType": "int256",
          "name": "btcPriceCurrent",
          "type": "int256"
        },
        {
          "indexed": false,
          "internalType": "int256",
          "name": "btcPricePrediction",
          "type": "int256"
        },
        {
          "indexed": false,
          "internalType": "bool",
          "name": "isNegativeFuture",
          "type": "bool"
        },
        {
          "indexed": false,
          "internalType": "bool",
          "name": "isPositiveFuture",
          "type": "bool"
        }
      ],
      "name": "AutoSwap",
      "type": "event"
    },
    {
      "anonymous": false,
      "inputs": [
        {
          "indexed": false,
          "internalType": "uint256",
          "name": "oldAmount",
          "type": "uint256"
        },
        {
          "indexed": false,
          "internalType": "uint256",
          "name": "newAmount",
          "type": "uint256"
        }
      ],
      "name": "DepositTUSD",
      "type": "event"
    },
    {
      "anonymous": false,
      "inputs": [
        {
          "indexed": false,
          "internalType": "uint256",
          "name": "oldAmount",
          "type": "uint256"
        },
        {
          "indexed": false,
          "internalType": "uint256",
          "name": "newAmount",
          "type": "uint256"
        }
      ],
      "name": "DepositWBTC",
      "type": "event"
    },
    {
      "anonymous": false,
      "inputs": [
        {
          "indexed": false,
          "internalType": "uint256",
          "name": "oldWbtcBalance",
          "type": "uint256"
        },
        {
          "indexed": false,
          "internalType": "uint256",
          "name": "newWbtcBalance",
          "type": "uint256"
        },
        {
          "indexed": false,
          "internalType": "uint256",
          "name": "oldTusdBalance",
          "type": "uint256"
        },
        {
          "indexed": false,
          "internalType": "uint256",
          "name": "newTusdBalance",
          "type": "uint256"
        }
      ],
      "name": "ManualSwap",
      "type": "event"
    },
    {
      "anonymous": false,
      "inputs": [
        {
          "indexed": false,
          "internalType": "bool",
          "name": "optInStatus",
          "type": "bool"
        }
      ],
      "name": "OptInStatus",
      "type": "event"
    },
    {
      "anonymous": false,
      "inputs": [
        {
          "indexed": false,
          "internalType": "int256",
          "name": "btcSentiment",
          "type": "int256"
        },
        {
          "indexed": false,
          "internalType": "int256",
          "name": "btcPriceCurrent",
          "type": "int256"
        },
        {
          "indexed": false,
          "internalType": "int256",
          "name": "btcPricePrediction",
          "type": "int256"
        },
        {
          "indexed": false,
          "internalType": "bool",
          "name": "isNegativeFuture",
          "type": "bool"
        },
        {
          "indexed": false,
          "internalType": "bool",
          "name": "isPositiveFuture",
          "type": "bool"
        }
      ],
      "name": "PredictionResults",
      "type": "event"
    },
    {
      "anonymous": false,
      "inputs": [
        {
          "indexed": false,
          "internalType": "bool",
          "name": "success",
          "type": "bool"
        },
        {
          "indexed": false,
          "internalType": "bool",
          "name": "isNewUser",
          "type": "bool"
        }
      ],
      "name": "RegisterUser",
      "type": "event"
    },
    {
      "anonymous": false,
      "inputs": [
        {
          "indexed": false,
          "internalType": "uint256",
          "name": "tusdBalance",
          "type": "uint256"
        },
        {
          "indexed": false,
          "internalType": "uint256",
          "name": "wbtcBalance",
          "type": "uint256"
        }
      ],
      "name": "UserBalance",
      "type": "event"
    },
    {
      "anonymous": false,
      "inputs": [
        {
          "indexed": false,
          "internalType": "bool",
          "name": "userExists",
          "type": "bool"
        }
      ],
      "name": "UserExists",
      "type": "event"
    },
    {
      "inputs": [
        {
          "internalType": "int256",
          "name": "btcSentiment",
          "type": "int256"
        },
        {
          "internalType": "int256",
          "name": "btcPriceCurrent",
          "type": "int256"
        },
        {
          "internalType": "int256",
          "name": "btcPricePrediction",
          "type": "int256"
        }
      ],
      "name": "_analyzeResults",
      "outputs": [
        {
          "internalType": "bool",
          "name": "",
          "type": "bool"
        },
        {
          "internalType": "bool",
          "name": "",
          "type": "bool"
        }
      ],
      "stateMutability": "pure",
      "type": "function"
    },
    {
      "inputs": [
        {
          "internalType": "int256",
          "name": "btcSentiment",
          "type": "int256"
        },
        {
          "internalType": "int256",
          "name": "btcPriceCurrent",
          "type": "int256"
        },
        {
          "internalType": "int256",
          "name": "btcPricePrediction",
          "type": "int256"
        }
      ],
      "name": "_processAnalysisAuto",
      "outputs": [],
      "stateMutability": "nonpayable",
      "type": "function"
    },
    {
      "inputs": [
        {
          "internalType": "int256",
          "name": "btcSentiment",
          "type": "int256"
        },
        {
          "internalType": "int256",
          "name": "btcPriceCurrent",
          "type": "int256"
        },
        {
          "internalType": "int256",
          "name": "btcPricePrediction",
          "type": "int256"
        }
      ],
      "name": "_processPredictionResults",
      "outputs": [],
      "stateMutability": "nonpayable",
      "type": "function"
    },
    {
      "inputs": [
        {
          "internalType": "uint256",
          "name": "depositAmount",
          "type": "uint256"
        }
      ],
      "name": "depositTUSD",
      "outputs": [],
      "stateMutability": "nonpayable",
      "type": "function"
    },
    {
      "inputs": [
        {
          "internalType": "uint256",
          "name": "depositAmount",
          "type": "uint256"
        }
      ],
      "name": "depositWBTC",
      "outputs": [],
      "stateMutability": "nonpayable",
      "type": "function"
    },
    {
      "inputs": [],
      "name": "fetchOptInStatus",
      "outputs": [],
      "stateMutability": "nonpayable",
      "type": "function"
    },
    {
      "inputs": [],
      "name": "fetchPredictionForecast",
      "outputs": [],
      "stateMutability": "nonpayable",
      "type": "function"
    },
    {
      "inputs": [],
      "name": "fetchUserBalance",
      "outputs": [],
      "stateMutability": "nonpayable",
      "type": "function"
    },
    {
      "inputs": [],
      "name": "manualSwapUserToTUSD",
      "outputs": [],
      "stateMutability": "nonpayable",
      "type": "function"
    },
    {
      "inputs": [],
      "name": "manualSwapUserToWBTC",
      "outputs": [],
      "stateMutability": "nonpayable",
      "type": "function"
    },
    {
      "inputs": [],
      "name": "registerUser",
      "outputs": [],
      "stateMutability": "nonpayable",
      "type": "function"
    },
    {
      "inputs": [
        {
          "internalType": "bool",
          "name": "newOptInStatus",
          "type": "bool"
        }
      ],
      "name": "setOptInStatus",
      "outputs": [],
      "stateMutability": "nonpayable",
      "type": "function"
    },
    {
      "inputs": [],
      "name": "smartSwapAllBalances",
      "outputs": [],
      "stateMutability": "nonpayable",
      "type": "function"
    },
    {
      "inputs": [],
      "name": "userExists",
      "outputs": [],
      "stateMutability": "nonpayable",
      "type": "function"
    }
  ],
  "bytecode": "0x6080604052348015620000575762461bcd60e51b6000908152602060045260226024527f45746865722073656e7420746f206e6f6e2d70617961626c652066756e63746960449081526137b760f11b60645290608490fd5b50604051620016bf380380620016bf8339810160408190526200007a91620000ec565b600480546001600160a01b039586166001600160a01b03199182161790915560058054948616948216949094179093556002805492851692841692909217909155600380549190931691161790556200018d565b80516001600160a01b0381168114620000e657600080fd5b92915050565b60008060008060808587031215620001435762461bcd60e51b8452602060045260226024527f414249206465636f64696e673a207475706c65206461746120746f6f2073686f604452611c9d60f21b606452608484fd5b6200014f8686620000ce565b9350620001608660208701620000ce565b9250620001718660408701620000ce565b9150620001828660608701620000ce565b905092959194509250565b611522806200019d6000396000f3fe60806040523480156100715762461bcd60e51b6000908152602060045260226024527f45746865722073656e7420746f206e6f6e2d70617961626c652066756e63746960449081527f6f6e00000000000000000000000000000000000000000000000000000000000060645290608490fd5b506004361061014b5760003560e01c80639c689278116100ed578063ba5bb4a5116100c7578063ba5bb4a514610251578063c629e17614610259578063e6db9d9114610261578063eae6d4da146102745761014b565b80639c68927814610218578063a62281ed1461022b578063aaf71e421461023e5761014b565b80634848907b116101295780634848907b146101ed5780634d3820eb146101f557806354c9f089146101fd578063737ec20f146102055761014b565b8063086b84c0146101b15780631c535cbb146101db5780632f07e74b146101e5575b62461bcd60e51b6000908152602060045260356024527f436f6e747261637420646f6573206e6f7420686176652066616c6c6261636b2060449081527f6e6f7220726563656976652066756e6374696f6e73000000000000000000000060645290608490fd5b6101c46101bf366004611051565b61027c565b6040516101d2929190611246565b60405180910390f35b6101e36102c7565b005b6101e3610396565b6101e361040c565b6101e3610461565b6101e3610544565b6101e361021336600461116a565b61058c565b6101e3610226366004611051565b6108b7565b6101e361023936600461116a565b61097f565b6101e361024c366004610f90565b610c91565b6101e3610cf1565b6101e3610d18565b6101e361026f366004611051565b610d6a565b6101e3610db5565b6000808383036014808605611387198812818503841285828061029c5750815b90506113888b1384871360008280156102b25750815b939e939d50929b505050505050505050505050565b60025460405163791db36160e01b81526001600160a01b039091169063791db361906103199030907fe6db9d9100000000000000000000000000000000000000000000000000000000906004016111e7565b600060405180830381600087803b15801561037c5762461bcd60e51b6000908152602060045260256024527f54617267657420636f6e747261637420646f6573206e6f7420636f6e7461696e60449081526420636f646560d81b60645290608490fd5b505af1158015610390573d6000803e3d6000fd5b50505050565b3360009081526001602081905260409091206002810154918101549091906103bd83610dfc565b600283015460018401546040517f42844fa91ceb8db5f17c7b856168e8b763fb7b343e4fef09621a05a06ce91ae1906103fd9086908590879086906114c0565b60405180910390a15050505050565b336000908152600160208190526040918290209081015460029091015491517f3e243e6d57641744143b337e8a56c38f7b922c81bfa4b9133d142a335defb6739261045792916114b2565b60405180910390a1565b336000908152600160205260408120805490919060ff166105025750805460ff1990811660019081178355600060028401819055838201819055600384018054909316909255815480820183559180527f290decd9548b62a8d60345a988386fc84ba6bc95484008f6362f93160ef3e56390910180547fffffffffffffffffffffffff00000000000000000000000000000000000000001633179055610506565b5060005b7f594b13a75635d7a1d0d9616388087b6c253fa290482b75bfbea722d7c3d7f041600182604051610538929190611246565b60405180910390a15050565b33600090815260016020526040908190206003015490517fd0f100f24f7c28024609f25a3abcc5be56f2f402721b0d86f410a0918fb7a760916104579160ff9091169061123b565b6005546040516323b872dd60e01b81526001600160a01b03909116906323b872dd906105c0903390309086906004016111c3565b602060405180830381600087803b1580156106235762461bcd60e51b6000908152602060045260256024527f54617267657420636f6e747261637420646f6573206e6f7420636f6e7461696e60449081526420636f646560d81b60645290608490fd5b505af1158015610637573d6000803e3d6000fd5b505050506040513d601f19601f8201168201806040525081019061065b9190610ff4565b6106805760405162461bcd60e51b81526004016106779061137e565b60405180910390fd5b60055460405163095ea7b360e01b81526001600160a01b039091169063095ea7b3906106b29030908590600401611222565b602060405180830381600087803b1580156107155762461bcd60e51b6000908152602060045260256024527f54617267657420636f6e747261637420646f6573206e6f7420636f6e7461696e60449081526420636f646560d81b60645290608490fd5b505af1158015610729573d6000803e3d6000fd5b505050506040513d601f19601f8201168201806040525081019061074d9190610ff4565b6107695760405162461bcd60e51b81526004016106779061132d565b6005546003546040516323b872dd60e01b81526001600160a01b03928316926323b872dd926107a29230929091169086906004016111c3565b602060405180830381600087803b1580156108055762461bcd60e51b6000908152602060045260256024527f54617267657420636f6e747261637420646f6573206e6f7420636f6e7461696e60449081526420636f646560d81b60645290608490fd5b505af1158015610819573d6000803e3d6000fd5b505050506040513d601f19601f8201168201806040525081019061083d9190610ff4565b6108595760405162461bcd60e51b81526004016106779061142c565b33600090815260016020526040908190206002810180548481019182905592519192917fe17978ba6ccb1ea930aba3d1d1eb2c586993d49e5a649080982994e327cff0d1916108aa918491906114b2565b60405180910390a1505050565b6000806108c585858561027c565b909250905060005b6000548110156109475760008082815481106108e557fe5b60009182526020808320909101546001600160a01b03168083526001909152604090912060038101549192509060ff161561093d57831561092e5761092981610f02565b61093d565b841561093d5761093d81610dfc565b50506001016108cd565b507f091a282094e5ad2fb5e4a844eb6524d4992133d987357278bd38aee7683c476285858585856040516103fd959493929190611258565b600480546040516323b872dd60e01b81526001600160a01b03909116916323b872dd916109b291339130918791016111c3565b602060405180830381600087803b158015610a155762461bcd60e51b6000908152602060045260256024527f54617267657420636f6e747261637420646f6573206e6f7420636f6e7461696e60449081526420636f646560d81b60645290608490fd5b505af1158015610a29573d6000803e3d6000fd5b505050506040513d601f19601f82011682018060405250810190610a4d9190610ff4565b610a695760405162461bcd60e51b8152600401610677906112d0565b6004805460405163095ea7b360e01b81526001600160a01b039091169163095ea7b391610a9a913091869101611222565b602060405180830381600087803b158015610afd5762461bcd60e51b6000908152602060045260256024527f54617267657420636f6e747261637420646f6573206e6f7420636f6e7461696e60449081526420636f646560d81b60645290608490fd5b505af1158015610b11573d6000803e3d6000fd5b505050506040513d601f19601f82011682018060405250810190610b359190610ff4565b610b515760405162461bcd60e51b8152600401610677906113db565b600480546003546040516323b872dd60e01b81526001600160a01b03928316936323b872dd93610b889330939116918791016111c3565b602060405180830381600087803b158015610beb5762461bcd60e51b6000908152602060045260256024527f54617267657420636f6e747261637420646f6573206e6f7420636f6e7461696e60449081526420636f646560d81b60645290608490fd5b505af1158015610bff573d6000803e3d6000fd5b505050506040513d601f19601f82011682018060405250810190610c239190610ff4565b610c3f5760405162461bcd60e51b81526004016106779061127f565b3360009081526001602081905260409182902090810180548481019182905592519192917f04768d535faeb3da91161576666e6eeae28e38af119b18462c02a345abc79898916108aa918491906114b2565b3360009081526001602052604090819020600301805460ff1916831515179081905590517fd0f100f24f7c28024609f25a3abcc5be56f2f402721b0d86f410a0918fb7a76091610ce69160ff9091169061123b565b60405180910390a150565b3360009081526001602081905260409091206002810154918101549091906103bd83610f02565b60025460405163791db36160e01b81526001600160a01b039091169063791db361906103199030907f9c68927800000000000000000000000000000000000000000000000000000000906004016111e7565b600080610d7885858561027c565b60405191935091507ff2130719beb549e45985e0443de9da39669bfece32d0677a7c6bd5c612e00f3b906103fd9087908790879087908790611258565b336000908152600160205260409081902054905160ff909116907f772becca9f9d9f49ba2cc28a82d9ac30b2ad1ca5a60f1b2a461f937ec0e315cd90610ce690839061123b565b610e04610f53565b6003546040517fd11455650000000000000000000000000000000000000000000000000000000081526001600160a01b039091169063d114556590610e4d90859060040161147d565b608060405180830381600087803b158015610eb05762461bcd60e51b6000908152602060045260256024527f54617267657420636f6e747261637420646f6573206e6f7420636f6e7461696e60449081526420636f646560d81b60645290608490fd5b505af1158015610ec4573d6000803e3d6000fd5b505050506040513d601f19601f82011682018060405250810190610ee891906110bd565b604081015160028401556020015160019092019190915550565b610f0a610f53565b6003546040517f0514226b0000000000000000000000000000000000000000000000000000000081526001600160a01b0390911690630514226b90610e4d90859060040161147d565b604051806080016040528060001515815260200160008152602001600081526020016000151581525090565b8051610f8a816114db565b92915050565b600060208284031215610fe25762461bcd60e51b8152602060045260226024527f414249206465636f64696e673a207475706c65206461746120746f6f2073686f604452611c9d60f21b606452608481fd5b8135610fed816114db565b9392505050565b6000602082840312156110465762461bcd60e51b8152602060045260226024527f414249206465636f64696e673a207475706c65206461746120746f6f2073686f604452611c9d60f21b606452608481fd5b8151610fed816114db565b6000806000606084860312156110a65762461bcd60e51b8252602060045260226024527f414249206465636f64696e673a207475706c65206461746120746f6f2073686f604452611c9d60f21b606452608482fd5b505081359360208301359350604090920135919050565b60006080828403121561110f5762461bcd60e51b8152602060045260226024527f414249206465636f64696e673a207475706c65206461746120746f6f2073686f604452611c9d60f21b606452608481fd5b6040516080810181811067ffffffffffffffff8211171561112e578283fd5b60405261113b8484610f7f565b8152602083015160208201526040830151604082015261115e8460608501610f7f565b60608201529392505050565b6000602082840312156111bc5762461bcd60e51b8152602060045260226024527f414249206465636f64696e673a207475706c65206461746120746f6f2073686f604452611c9d60f21b606452608481fd5b5035919050565b6001600160a01b039384168152919092166020820152604081019190915260600190565b6001600160a01b039290921682527fffffffff0000000000000000000000000000000000000000000000000000000016602082015260400190565b6001600160a01b03929092168252602082015260400190565b901515815260200190565b91151582521515602082015260400190565b94855260208501939093526040840191909152151560608301521515608082015260a00190565b60208082526031908201527f5472616e73666572206f66205455534420746f20546f6b656e537761707065726040820152701031b7b73a3930b1ba103330b4b632b21760791b606082015260800190565b60208082526034908201527f4465706f736974206f6620545553442066726f6d207573657220746f2053776160408201527f70414920636f6e7472616374206661696c65642e000000000000000000000000606082015260800190565b60208082526031908201527f417070726f76616c206f66205742544320746f20546f6b656e537761707065726040820152701031b7b73a3930b1ba103330b4b632b21760791b606082015260800190565b60208082526034908201527f4465706f736974206f6620574254432066726f6d207573657220746f2053776160408201527f70414920636f6e7472616374206661696c65642e000000000000000000000000606082015260800190565b60208082526031908201527f417070726f76616c206f66205455534420746f20546f6b656e537761707065726040820152701031b7b73a3930b1ba103330b4b632b21760791b606082015260800190565b60208082526031908201527f5472616e73666572206f66205742544320746f20546f6b656e537761707065726040820152701031b7b73a3930b1ba103330b4b632b21760791b606082015260800190565b815460ff9081161515825260018301546020830152600283015460408301526003909201549091161515606082015260800190565b918252602082015260400190565b93845260208401929092526040830152606082015260800190565b80151581146114e957600080fd5b5056fea2646970667358221220d3ffa3b82395567e06b9a467f78c163c92a0202346837b1174c32ecfd275eaca64736f6c634300060c0033",
  "linkReferences": {},
  "deployedLinkReferences": {}
}